{"contracts/FANATICO8.sol":{"FANATICO8":{"abi":[{"inputs":[{"internalType":"string","name":"_name","type":"string"},{"internalType":"string","name":"_symbol","type":"string"}],"stateMutability":"nonpayable","type":"constructor"},{"inputs":[{"internalType":"uint256","name":"_amount","type":"uint256"}],"name":"InsufficientBalance","type":"error"},{"inputs":[],"name":"InsufficientUnlocked","type":"error"},{"inputs":[],"name":"ZeroValueNotAllowed","type":"error"},{"anonymous":false,"inputs":[{"indexed":true,"internalType":"address","name":"owner","type":"address"},{"indexed":true,"internalType":"address","name":"spender","type":"address"},{"indexed":false,"internalType":"uint256","name":"value","type":"uint256"}],"name":"Approval","type":"event"},{"anonymous":false,"inputs":[{"indexed":true,"internalType":"address","name":"_owner","type":"address"},{"indexed":true,"internalType":"uint256","name":"_amount","type":"uint256"}],"name":"DailyRewardsClaimed","type":"event"},{"anonymous":false,"inputs":[{"indexed":true,"internalType":"address","name":"_oldAddress","type":"address"},{"indexed":true,"internalType":"address","name":"_newAddress","type":"address"}],"name":"LubAuctionAddressChanged","type":"event"},{"anonymous":false,"inputs":[{"indexed":true,"internalType":"bytes32","name":"role","type":"bytes32"},{"indexed":true,"internalType":"bytes32","name":"previousAdminRole","type":"bytes32"},{"indexed":true,"internalType":"bytes32","name":"newAdminRole","type":"bytes32"}],"name":"RoleAdminChanged","type":"event"},{"anonymous":false,"inputs":[{"indexed":true,"internalType":"bytes32","name":"role","type":"bytes32"},{"indexed":true,"internalType":"address","name":"account","type":"address"},{"indexed":true,"internalType":"address","name":"sender","type":"address"}],"name":"RoleGranted","type":"event"},{"anonymous":false,"inputs":[{"indexed":true,"internalType":"bytes32","name":"role","type":"bytes32"},{"indexed":true,"internalType":"address","name":"account","type":"address"},{"indexed":true,"internalType":"address","name":"sender","type":"address"}],"name":"RoleRevoked","type":"event"},{"anonymous":false,"inputs":[{"indexed":true,"internalType":"address","name":"_owner","type":"address"},{"indexed":true,"internalType":"uint256","name":"_amount","type":"uint256"}],"name":"SignupBonusClaimed","type":"event"},{"anonymous":false,"inputs":[{"indexed":true,"internalType":"address","name":"_owner","type":"address"},{"indexed":true,"internalType":"uint256","name":"_amount","type":"uint256"},{"indexed":true,"internalType":"uint256","name":"_lockedUntil","type":"uint256"}],"name":"TokensLocked","type":"event"},{"anonymous":false,"inputs":[{"indexed":true,"internalType":"address","name":"_owner","type":"address"},{"indexed":true,"internalType":"uint256","name":"_amount","type":"uint256"}],"name":"TokensUnlocked","type":"event"},{"anonymous":false,"inputs":[{"indexed":true,"internalType":"address","name":"from","type":"address"},{"indexed":true,"internalType":"address","name":"to","type":"address"},{"indexed":false,"internalType":"uint256","name":"value","type":"uint256"}],"name":"Transfer","type":"event"},{"inputs":[],"name":"DAILY_REWARDS","outputs":[{"internalType":"uint256","name":"","type":"uint256"}],"stateMutability":"view","type":"function"},{"inputs":[],"name":"DEFAULT_ADMIN_ROLE","outputs":[{"internalType":"bytes32","name":"","type":"bytes32"}],"stateMutability":"view","type":"function"},{"inputs":[],"name":"LOCK_DURATION","outputs":[{"internalType":"uint64","name":"","type":"uint64"}],"stateMutability":"view","type":"function"},{"inputs":[],"name":"MAX_TRANSFER_PER_TRANSACTION","outputs":[{"internalType":"uint256","name":"","type":"uint256"}],"stateMutability":"view","type":"function"},{"inputs":[],"name":"SIGNUP_REWARDS","outputs":[{"internalType":"uint256","name":"","type":"uint256"}],"stateMutability":"view","type":"function"},{"inputs":[{"internalType":"address","name":"owner","type":"address"},{"internalType":"address","name":"spender","type":"address"}],"name":"allowance","outputs":[{"internalType":"uint256","name":"","type":"uint256"}],"stateMutability":"view","type":"function"},{"inputs":[{"internalType":"address","name":"spender","type":"address"},{"internalType":"uint256","name":"amount","type":"uint256"}],"name":"approve","outputs":[{"internalType":"bool","name":"","type":"bool"}],"stateMutability":"nonpayable","type":"function"},{"inputs":[{"internalType":"address","name":"account","type":"address"}],"name":"balanceOf","outputs":[{"internalType":"uint256","name":"","type":"uint256"}],"stateMutability":"view","type":"function"},{"inputs":[{"internalType":"uint256","name":"amount","type":"uint256"}],"name":"burn","outputs":[],"stateMutability":"nonpayable","type":"function"},{"inputs":[{"internalType":"address","name":"account","type":"address"},{"internalType":"uint256","name":"amount","type":"uint256"}],"name":"burnFrom","outputs":[],"stateMutability":"nonpayable","type":"function"},{"inputs":[{"internalType":"address","name":"_lubAuctionAddress","type":"address"}],"name":"changeLubAuctionAddress","outputs":[],"stateMutability":"nonpayable","type":"function"},{"inputs":[{"internalType":"address","name":"account","type":"address"}],"name":"dailyBonus","outputs":[],"stateMutability":"nonpayable","type":"function"},{"inputs":[],"name":"decimals","outputs":[{"internalType":"uint8","name":"","type":"uint8"}],"stateMutability":"view","type":"function"},{"inputs":[{"internalType":"address","name":"spender","type":"address"},{"internalType":"uint256","name":"subtractedValue","type":"uint256"}],"name":"decreaseAllowance","outputs":[{"internalType":"bool","name":"","type":"bool"}],"stateMutability":"nonpayable","type":"function"},{"inputs":[{"internalType":"address","name":"token","type":"address"},{"internalType":"uint256","name":"amount","type":"uint256"}],"name":"flashFee","outputs":[{"internalType":"uint256","name":"","type":"uint256"}],"stateMutability":"view","type":"function"},{"inputs":[{"internalType":"contract IERC3156FlashBorrower","name":"receiver","type":"address"},{"internalType":"address","name":"token","type":"address"},{"internalType":"uint256","name":"amount","type":"uint256"},{"internalType":"bytes","name":"data","type":"bytes"}],"name":"flashLoan","outputs":[{"internalType":"bool","name":"","type":"bool"}],"stateMutability":"nonpayable","type":"function"},{"inputs":[{"internalType":"bytes32","name":"role","type":"bytes32"}],"name":"getRoleAdmin","outputs":[{"internalType":"bytes32","name":"","type":"bytes32"}],"stateMutability":"view","type":"function"},{"inputs":[{"internalType":"bytes32","name":"role","type":"bytes32"},{"internalType":"address","name":"account","type":"address"}],"name":"grantRole","outputs":[],"stateMutability":"nonpayable","type":"function"},{"inputs":[{"internalType":"bytes32","name":"role","type":"bytes32"},{"internalType":"address","name":"account","type":"address"}],"name":"hasRole","outputs":[{"internalType":"bool","name":"","type":"bool"}],"stateMutability":"view","type":"function"},{"inputs":[{"internalType":"address","name":"spender","type":"address"},{"internalType":"uint256","name":"addedValue","type":"uint256"}],"name":"increaseAllowance","outputs":[{"internalType":"bool","name":"","type":"bool"}],"stateMutability":"nonpayable","type":"function"},{"inputs":[{"internalType":"address","name":"","type":"address"}],"name":"lastClaimedTime","outputs":[{"internalType":"uint256","name":"","type":"uint256"}],"stateMutability":"view","type":"function"},{"inputs":[{"internalType":"address","name":"","type":"address"}],"name":"lockedVotingTokens","outputs":[{"internalType":"uint256","name":"","type":"uint256"}],"stateMutability":"view","type":"function"},{"inputs":[],"name":"lubAuctionAddress","outputs":[{"internalType":"address","name":"","type":"address"}],"stateMutability":"view","type":"function"},{"inputs":[{"internalType":"address","name":"token","type":"address"}],"name":"maxFlashLoan","outputs":[{"internalType":"uint256","name":"","type":"uint256"}],"stateMutability":"view","type":"function"},{"inputs":[{"internalType":"address","name":"account","type":"address"},{"internalType":"uint256","name":"amount","type":"uint256"}],"name":"mintLocked","outputs":[],"stateMutability":"nonpayable","type":"function"},{"inputs":[{"internalType":"address","name":"account","type":"address"},{"internalType":"uint256","name":"amount","type":"uint256"}],"name":"mintUnlocked","outputs":[],"stateMutability":"nonpayable","type":"function"},{"inputs":[],"name":"name","outputs":[{"internalType":"string","name":"","type":"string"}],"stateMutability":"view","type":"function"},{"inputs":[{"internalType":"bytes32","name":"role","type":"bytes32"},{"internalType":"address","name":"account","type":"address"}],"name":"renounceRole","outputs":[],"stateMutability":"nonpayable","type":"function"},{"inputs":[{"internalType":"bytes32","name":"role","type":"bytes32"},{"internalType":"address","name":"account","type":"address"}],"name":"revokeRole","outputs":[],"stateMutability":"nonpayable","type":"function"},{"inputs":[{"internalType":"address","name":"account","type":"address"}],"name":"signupBonus","outputs":[],"stateMutability":"nonpayable","type":"function"},{"inputs":[{"internalType":"address","name":"","type":"address"}],"name":"signupBonusClaimed","outputs":[{"internalType":"bool","name":"","type":"bool"}],"stateMutability":"view","type":"function"},{"inputs":[{"internalType":"bytes4","name":"interfaceId","type":"bytes4"}],"name":"supportsInterface","outputs":[{"internalType":"bool","name":"","type":"bool"}],"stateMutability":"view","type":"function"},{"inputs":[],"name":"symbol","outputs":[{"internalType":"string","name":"","type":"string"}],"stateMutability":"view","type":"function"},{"inputs":[],"name":"totalSupply","outputs":[{"internalType":"uint256","name":"","type":"uint256"}],"stateMutability":"view","type":"function"},{"inputs":[{"internalType":"address","name":"to","type":"address"},{"internalType":"uint256","name":"amount","type":"uint256"}],"name":"transfer","outputs":[{"internalType":"bool","name":"","type":"bool"}],"stateMutability":"nonpayable","type":"function"},{"inputs":[{"internalType":"address","name":"from","type":"address"},{"internalType":"address","name":"to","type":"address"},{"internalType":"uint256","name":"amount","type":"uint256"}],"name":"transferFrom","outputs":[{"internalType":"bool","name":"","type":"bool"}],"stateMutability":"nonpayable","type":"function"},{"inputs":[{"internalType":"address","name":"","type":"address"}],"name":"unlockedBalanceOf","outputs":[{"internalType":"uint256","name":"","type":"uint256"}],"stateMutability":"view","type":"function"}],"evm":{"bytecode":{"linkReferences":{},"object":"60806040523480156200001157600080fd5b506040516200270238038062002702833981016040819052620000349162000215565b818160036200004483826200030e565b5060046200005382826200030e565b5050600160065550620000686000336200009c565b620000947f9f2df0fed2c77648de5860a4cc508cd0818c85b8b8a1ab4ceeef8d981c8956a6336200009c565b5050620003da565b620000a88282620000ac565b5050565b60008281526005602090815260408083206001600160a01b038516845290915290205460ff16620000a85760008281526005602090815260408083206001600160a01b03851684529091529020805460ff191660011790556200010c3390565b6001600160a01b0316816001600160a01b0316837f2f8788117e7eff1d82e926ec794901d17c78024a50270940304540a733656f0d60405160405180910390a45050565b634e487b7160e01b600052604160045260246000fd5b600082601f8301126200017857600080fd5b81516001600160401b038082111562000195576200019562000150565b604051601f8301601f19908116603f01168101908282118183101715620001c057620001c062000150565b81604052838152602092508683858801011115620001dd57600080fd5b600091505b83821015620002015785820183015181830184015290820190620001e2565b600093810190920192909252949350505050565b600080604083850312156200022957600080fd5b82516001600160401b03808211156200024157600080fd5b6200024f8683870162000166565b935060208501519150808211156200026657600080fd5b50620002758582860162000166565b9150509250929050565b600181811c908216806200029457607f821691505b602082108103620002b557634e487b7160e01b600052602260045260246000fd5b50919050565b601f8211156200030957600081815260208120601f850160051c81016020861015620002e45750805b601f850160051c820191505b818110156200030557828155600101620002f0565b5050505b505050565b81516001600160401b038111156200032a576200032a62000150565b62000342816200033b84546200027f565b84620002bb565b602080601f8311600181146200037a5760008415620003615750858301515b600019600386901b1c1916600185901b17855562000305565b600085815260208120601f198616915b82811015620003ab578886015182559484019460019091019084016200038a565b5085821015620003ca5787850151600019600388901b60f8161c191681555b5050505050600190811b01905550565b61231880620003ea6000396000f3fe608060405234801561001057600080fd5b50600436106102265760003560e01c80636b5b0cc111610130578063a457c2d7116100b8578063d9d98ce41161007c578063d9d98ce4146104f8578063dd62ed3e1461050b578063de47a2cc1461051e578063f3f91fa01461052f578063f457239a1461054f57600080fd5b8063a457c2d714610474578063a9059cbb14610487578063b0a06bc21461049a578063b95d47d6146104c5578063d547741f146104e557600080fd5b806383ec4700116100ff57806383ec47001461040e57806384955c881461043157806391d148541461045157806395d89b4114610464578063a217fddf1461046c57600080fd5b80636b5b0cc1146103ac57806370a08231146103bf5780637477f36a146103e857806379cc6790146103fb57600080fd5b806336568abe116101b35780634975448e116101825780634975448e146103555780634b9afa80146103645780635143e246146103735780635cffe9de14610386578063613255ab1461039957600080fd5b806336568abe146102fa578063395093511461030d57806342966c6814610320578063485d38341461033357600080fd5b806318160ddd116101fa57806318160ddd1461029057806323b872dd146102a2578063248a9ca3146102b55780632f2ff15d146102d8578063313ce567146102eb57600080fd5b8062168ce71461022b57806301ffc9a71461024057806306fdde0314610268578063095ea7b31461027d575b600080fd5b61023e610239366004611eca565b610562565b005b61025361024e366004611ee7565b610694565b60405190151581526020015b60405180910390f35b6102706106cb565b60405161025f9190611f35565b61025361028b366004611f68565b61075d565b6002545b60405190815260200161025f565b6102536102b0366004611f94565b610775565b6102946102c3366004611fd5565b60009081526005602052604090206001015490565b61023e6102e6366004611fee565b610799565b6040516012815260200161025f565b61023e610308366004611fee565b6107c3565b61025361031b366004611f68565b61083d565b61023e61032e366004611fd5565b61085f565b61033c610e1081565b60405167ffffffffffffffff909116815260200161025f565b6102946729a2241af62c000081565b610294670de0b6b3a764000081565b61023e610381366004611f68565b61086c565b61025361039436600461201e565b6108aa565b6102946103a7366004611eca565b61093b565b61023e6103ba366004611eca565b610963565b6102946103cd366004611eca565b6001600160a01b031660009081526020819052604090205490565b61023e6103f6366004611f68565b610af5565b61023e610409366004611f68565b610b5b565b61025361041c366004611eca565b600a6020526000908152604090205460ff1681565b61029461043f366004611eca565b60096020526000908152604090205481565b61025361045f366004611fee565b610b70565b610270610b9b565b610294600081565b610253610482366004611f68565b610baa565b610253610495366004611f68565b610c25565b600c546104ad906001600160a01b031681565b6040516001600160a01b03909116815260200161025f565b6102946104d3366004611eca565b60086020526000908152604090205481565b61023e6104f3366004611fee565b610c33565b610294610506366004611f68565b610c58565b6102946105193660046120bd565b610cbc565b61029469d3c21bcecceda100000081565b61029461053d366004611eca565b600b6020526000908152604090205481565b61023e61055d366004611eca565b610ce7565b7f51785d261c3b3e8c2cfe2d0e108b9ab2b1fb703ff9e9e49aba4ebdc85c36152b61058c81610dc1565b610594610dcb565b6001600160a01b0382166000908152600a602052604090205460ff16156106025760405162461bcd60e51b815260206004820152601c60248201527f5369676e757020626f6e757320616c726561647920636c61696d65640000000060448201526064015b60405180910390fd5b610614826729a2241af62c0000610e24565b610626826729a2241af62c0000610ef7565b6001600160a01b0382166000818152600a60209081526040808320805460ff19166001179055600b909152808220429055516729a2241af62c000092917fade39d03f7e1567481089a1f27266f44ec23a12393c518cef2f85e2cc2ec173f91a36106906001600655565b5050565b60006001600160e01b03198216637965db0b60e01b14806106c557506301ffc9a760e01b6001600160e01b03198316145b92915050565b6060600380546106da906120eb565b80601f0160208091040260200160405190810160405280929190818152602001828054610706906120eb565b80156107535780601f1061072857610100808354040283529160200191610753565b820191906000526020600020905b81548152906001019060200180831161073657829003601f168201915b5050505050905090565b60003361076b81858561101a565b5060019392505050565b60003361078385828561113e565b61078e8585856111b8565b506001949350505050565b6000828152600560205260409020600101546107b481610dc1565b6107be838361136d565b505050565b6001600160a01b03811633146108335760405162461bcd60e51b815260206004820152602f60248201527f416363657373436f6e74726f6c3a2063616e206f6e6c792072656e6f756e636560448201526e103937b632b9903337b91039b2b63360891b60648201526084016105f9565b61069082826113f3565b60003361076b8185856108508383610cbc565b61085a919061213b565b61101a565b610869338261145a565b50565b7f9f2df0fed2c77648de5860a4cc508cd0818c85b8b8a1ab4ceeef8d981c8956a661089681610dc1565b6108a08383610e24565b6107be8383610ef7565b6001600160a01b0385166000908152600860205260408120805485919083906108d490849061213b565b909155505033600090815260086020526040812080548692906108f890849061213b565b909155506000905061090d878787878761159f565b6001600160a01b03881660009081526008602052604080822082905533825281205591505095945050505050565b60006001600160a01b03821630146109545760006106c5565b6002546106c59060001961214e565b7f51785d261c3b3e8c2cfe2d0e108b9ab2b1fb703ff9e9e49aba4ebdc85c36152b61098d81610dc1565b610995610dcb565b6001600160a01b0382166000908152600a602052604090205460ff166109fd5760405162461bcd60e51b815260206004820152601c60248201527f5369676e757020626f6e7573206e6f7420636c61696d6564207965740000000060448201526064016105f9565b6001600160a01b0382166000908152600b602052604090205461025890610a24904261214e565b1015610a7c5760405162461bcd60e51b815260206004820152602160248201527f4461696c7920626f6e757320616c726561647920636c61696d656420746f64616044820152607960f81b60648201526084016105f9565b610a8e82670de0b6b3a7640000610e24565b610aa082670de0b6b3a7640000610ef7565b6001600160a01b0382166000818152600b602052604080822042905551670de0b6b3a764000092917fd45e91d4afc2d881a07573dec52ea6c5d8aa811076201c1281a280878d26a1de91a36106906001600655565b7f9f2df0fed2c77648de5860a4cc508cd0818c85b8b8a1ab4ceeef8d981c8956a6610b1f81610dc1565b610b298383610e24565b6001600160a01b03831660009081526009602052604081208054849290610b5190849061213b565b9091555050505050565b610b6682338361113e565b610690828261145a565b60009182526005602090815260408084206001600160a01b0393909316845291905290205460ff1690565b6060600480546106da906120eb565b60003381610bb88286610cbc565b905083811015610c185760405162461bcd60e51b815260206004820152602560248201527f45524332303a2064656372656173656420616c6c6f77616e63652062656c6f77604482015264207a65726f60d81b60648201526084016105f9565b61078e828686840361101a565b60003361076b8185856111b8565b600082815260056020526040902060010154610c4e81610dc1565b6107be83836113f3565b60006001600160a01b0383163014610cb25760405162461bcd60e51b815260206004820152601b60248201527f4552433230466c6173684d696e743a2077726f6e6720746f6b656e000000000060448201526064016105f9565b60005b9392505050565b6001600160a01b03918216600090815260016020908152604080832093909416825291909152205490565b6000610cf281610dc1565b6001600160a01b038216610d595760405162461bcd60e51b815260206004820152602860248201527f5a65726f2061646472657373206e6f7420616c6c6f77656420666f72204c55426044820152671030bab1ba34b7b760c11b60648201526084016105f9565b600c546001600160a01b0383811691161461069057600c80546001600160a01b038481166001600160a01b0319831681179093556040519116919082907f9e65d461655023e5ee934a1969793e5df8a302f08a5e849ede5562fd3e80e93e90600090a3505050565b6108698133611783565b600260065403610e1d5760405162461bcd60e51b815260206004820152601f60248201527f5265656e7472616e637947756172643a207265656e7472616e742063616c6c0060448201526064016105f9565b6002600655565b6001600160a01b038216610e7a5760405162461bcd60e51b815260206004820152601f60248201527f45524332303a206d696e7420746f20746865207a65726f20616464726573730060448201526064016105f9565b610e86600083836117dc565b8060026000828254610e98919061213b565b90915550506001600160a01b038216600081815260208181526040808320805486019055518481527fddf252ad1be2c89b69c2b068fc378daa952ba7f163c4a11628f55a4df523b3ef910160405180910390a361069060008383611893565b6000610f05610e104261213b565b6001600160a01b0384166000908152600960209081526040808320549183905290912054919250610f359161214e565b821115610f845760405162461bcd60e51b815260206004820152601a60248201527f467265652062616c616e6365206c6f636b20657863656564656400000000000060448201526064016105f9565b6001600160a01b0383166000818152600760209081526040808320815180830183526001600160c01b03808916825267ffffffffffffffff80891683870190815284546001810186559488529587209251955116600160c01b02941693909317920191909155518392859290917fd741e738a23fd18a03a26522320d9fc6cac1fed483e215ea9150fbc2fc43385d9190a4505050565b6001600160a01b03831661107c5760405162461bcd60e51b8152602060048201526024808201527f45524332303a20617070726f76652066726f6d20746865207a65726f206164646044820152637265737360e01b60648201526084016105f9565b6001600160a01b0382166110dd5760405162461bcd60e51b815260206004820152602260248201527f45524332303a20617070726f766520746f20746865207a65726f206164647265604482015261737360f01b60648201526084016105f9565b6001600160a01b0383811660008181526001602090815260408083209487168084529482529182902085905590518481527f8c5be1e5ebec7d5bd14f71427d1e84f3dd0314c0f7b2291e5b200ac8c7c3b925910160405180910390a3505050565b600061114a8484610cbc565b905060001981146111b257818110156111a55760405162461bcd60e51b815260206004820152601d60248201527f45524332303a20696e73756666696369656e7420616c6c6f77616e636500000060448201526064016105f9565b6111b2848484840361101a565b50505050565b6001600160a01b03831661121c5760405162461bcd60e51b815260206004820152602560248201527f45524332303a207472616e736665722066726f6d20746865207a65726f206164604482015264647265737360d81b60648201526084016105f9565b6001600160a01b03821661127e5760405162461bcd60e51b815260206004820152602360248201527f45524332303a207472616e7366657220746f20746865207a65726f206164647260448201526265737360e81b60648201526084016105f9565b6112898383836117dc565b6001600160a01b038316600090815260208190526040902054818110156113015760405162461bcd60e51b815260206004820152602660248201527f45524332303a207472616e7366657220616d6f756e7420657863656564732062604482015265616c616e636560d01b60648201526084016105f9565b6001600160a01b03848116600081815260208181526040808320878703905593871680835291849020805487019055925185815290927fddf252ad1be2c89b69c2b068fc378daa952ba7f163c4a11628f55a4df523b3ef910160405180910390a36111b2848484611893565b6113778282610b70565b6106905760008281526005602090815260408083206001600160a01b03851684529091529020805460ff191660011790556113af3390565b6001600160a01b0316816001600160a01b0316837f2f8788117e7eff1d82e926ec794901d17c78024a50270940304540a733656f0d60405160405180910390a45050565b6113fd8282610b70565b156106905760008281526005602090815260408083206001600160a01b0385168085529252808320805460ff1916905551339285917ff6391f5c32d9c69d2a47ea670b442974b53935d1edc7fd64eb21e047a839171b9190a45050565b6001600160a01b0382166114ba5760405162461bcd60e51b815260206004820152602160248201527f45524332303a206275726e2066726f6d20746865207a65726f206164647265736044820152607360f81b60648201526084016105f9565b6114c6826000836117dc565b6001600160a01b0382166000908152602081905260409020548181101561153a5760405162461bcd60e51b815260206004820152602260248201527f45524332303a206275726e20616d6f756e7420657863656564732062616c616e604482015261636560f01b60648201526084016105f9565b6001600160a01b0383166000818152602081815260408083208686039055600280548790039055518581529192917fddf252ad1be2c89b69c2b068fc378daa952ba7f163c4a11628f55a4df523b3ef910160405180910390a36107be83600084611893565b60006115aa8561093b565b84111561160d5760405162461bcd60e51b815260206004820152602b60248201527f4552433230466c6173684d696e743a20616d6f756e742065786365656473206d60448201526a30bc233630b9b42637b0b760a91b60648201526084016105f9565b60006116198686610c58565b90506116258786610e24565b6040516323e30c8b60e01b81527f439148f0bbc682ca079e46d6e2c2f0c1e3b820f1a291b069d8882abf8cf18dd9906001600160a01b038916906323e30c8b9061167d9033908b908b9088908c908c90600401612161565b6020604051808303816000875af115801561169c573d6000803e3d6000fd5b505050506040513d601f19601f820116820180604052508101906116c091906121bd565b146117195760405162461bcd60e51b8152602060048201526024808201527f4552433230466c6173684d696e743a20696e76616c69642072657475726e2076604482015263616c756560e01b60648201526084016105f9565b600061172f883061172a858a61213b565b61113e565b81158061174357506001600160a01b038116155b156117605761175b88611756848961213b565b61145a565b611775565b61176a888761145a565b6117758882846111b8565b506001979650505050505050565b61178d8282610b70565b6106905761179a8161190a565b6117a583602061191c565b6040516020016117b69291906121d6565b60408051601f198184030181529082905262461bcd60e51b82526105f991600401611f35565b6001600160a01b0383166117ef57505050565b69d3c21bcecceda10000008111156118495760405162461bcd60e51b815260206004820152601c60248201527f4d41585f5452414e534645525f5045525f5452414e53414354494f4e0000000060448201526064016105f9565b6001600160a01b0383166000908152600960205260409020548111156107be57600c546001600160a01b0390811690831603611889576107be8382611ab8565b6107be8382611d15565b6001600160a01b0383166118a657505050565b6001600160a01b038316600090815260096020526040812080548392906118ce90849061214e565b90915550506001600160a01b038216600090815260096020526040812080548392906118fb90849061213b565b909155506107be905083838383565b60606106c56001600160a01b03831660145b6060600061192b83600261224b565b61193690600261213b565b67ffffffffffffffff81111561194e5761194e612262565b6040519080825280601f01601f191660200182016040528015611978576020820181803683370190505b509050600360fc1b8160008151811061199357611993612278565b60200101906001600160f81b031916908160001a905350600f60fb1b816001815181106119c2576119c2612278565b60200101906001600160f81b031916908160001a90535060006119e684600261224b565b6119f190600161213b565b90505b6001811115611a69576f181899199a1a9b1b9c1cb0b131b232b360811b85600f1660108110611a2557611a25612278565b1a60f81b828281518110611a3b57611a3b612278565b60200101906001600160f81b031916908160001a90535060049490941c93611a628161228e565b90506119f4565b508315610cb55760405162461bcd60e51b815260206004820181905260248201527f537472696e67733a20686578206c656e67746820696e73756666696369656e7460448201526064016105f9565b611ac28282611e4f565b6001600160a01b0382166000908152600960209081526040808320549183905290912054611af0919061214e565b811115611b3f5760405162461bcd60e51b815260206004820152601860248201527f4e6f7420656e6f756768206c6f636b656420746f6b656e73000000000000000060448201526064016105f9565b6001600160a01b038216600090815260076020526040812080545b8015611cc5578382611b6d60018461214e565b81548110611b7d57611b7d612278565b6000918252602090912001546001600160c01b031611611c3e5781611ba360018361214e565b81548110611bb357611bb3612278565b600091825260209091200154611bd2906001600160c01b03168461213b565b925081611be060018361214e565b81548110611bf057611bf0612278565b600091825260209091200154611c0f906001600160c01b03168561214e565b935081805480611c2157611c216122a5565b600082815260208120820160001990810191909155019055611cb3565b611c48848461213b565b92508382611c5760018461214e565b81548110611c6757611c67612278565b600091825260208220018054909190611c8a9084906001600160c01b03166122bb565b92506101000a8154816001600160c01b0302191690836001600160c01b03160217905550611cc5565b80611cbd8161228e565b915050611b5a565b508282146111b25760405162461bcd60e51b815260206004820152601860248201527f556e6c6f636b656420616d6f756e74206d69736d61746368000000000000000060448201526064016105f9565b611d1f8282611e4f565b6001600160a01b038216600090815260096020908152604080832054600790925290912080545b8015611e0c574282611d5960018461214e565b81548110611d6957611d69612278565b600091825260209091200154600160c01b900467ffffffffffffffff1611611df55781611d9760018361214e565b81548110611da757611da7612278565b600091825260209091200154611dc6906001600160c01b03168461213b565b925081805480611dd857611dd86122a5565b600082815260208120820160001990810191909155019055611dfa565b611e0c565b80611e048161228e565b915050611d46565b5081831115611e2e576040516313424e8d60e31b815260040160405180910390fd5b506001600160a01b0390921660009081526009602052604090209190915550565b611e5881611e94565b6001600160a01b03821660009081526020819052604090205481111561069057604051639266535160e01b8152600481018290526024016105f9565b806000036108695760405163273e150360e21b815260040160405180910390fd5b6001600160a01b038116811461086957600080fd5b600060208284031215611edc57600080fd5b8135610cb581611eb5565b600060208284031215611ef957600080fd5b81356001600160e01b031981168114610cb557600080fd5b60005b83811015611f2c578181015183820152602001611f14565b50506000910152565b6020815260008251806020840152611f54816040850160208701611f11565b601f01601f19169190910160400192915050565b60008060408385031215611f7b57600080fd5b8235611f8681611eb5565b946020939093013593505050565b600080600060608486031215611fa957600080fd5b8335611fb481611eb5565b92506020840135611fc481611eb5565b929592945050506040919091013590565b600060208284031215611fe757600080fd5b5035919050565b6000806040838503121561200157600080fd5b82359150602083013561201381611eb5565b809150509250929050565b60008060008060006080868803121561203657600080fd5b853561204181611eb5565b9450602086013561205181611eb5565b935060408601359250606086013567ffffffffffffffff8082111561207557600080fd5b818801915088601f83011261208957600080fd5b81358181111561209857600080fd5b8960208285010111156120aa57600080fd5b9699959850939650602001949392505050565b600080604083850312156120d057600080fd5b82356120db81611eb5565b9150602083013561201381611eb5565b600181811c908216806120ff57607f821691505b60208210810361211f57634e487b7160e01b600052602260045260246000fd5b50919050565b634e487b7160e01b600052601160045260246000fd5b808201808211156106c5576106c5612125565b818103818111156106c5576106c5612125565b6001600160a01b03878116825286166020820152604081018590526060810184905260a06080820181905281018290526000828460c0840137600060c0848401015260c0601f19601f8501168301019050979650505050505050565b6000602082840312156121cf57600080fd5b5051919050565b7f416363657373436f6e74726f6c3a206163636f756e742000000000000000000081526000835161220e816017850160208801611f11565b7001034b99036b4b9b9b4b733903937b6329607d1b601791840191820152835161223f816028840160208801611f11565b01602801949350505050565b80820281158282048414176106c5576106c5612125565b634e487b7160e01b600052604160045260246000fd5b634e487b7160e01b600052603260045260246000fd5b60008161229d5761229d612125565b506000190190565b634e487b7160e01b600052603160045260246000fd5b6001600160c01b038281168282160390808211156122db576122db612125565b509291505056fea264697066735822122073889b10bf682162d1a1bb3b57ea0bafbddba8219a6b7345966a011ea56cb51964736f6c63430008120033","opcodes":"PUSH1 0x80 PUSH1 0x40 MSTORE CALLVALUE DUP1 ISZERO PUSH3 0x11 JUMPI PUSH1 0x0 DUP1 REVERT JUMPDEST POP PUSH1 0x40 MLOAD PUSH3 0x2702 CODESIZE SUB DUP1 PUSH3 0x2702 DUP4 CODECOPY DUP2 ADD PUSH1 0x40 DUP2 SWAP1 MSTORE PUSH3 0x34 SWAP2 PUSH3 0x215 JUMP JUMPDEST DUP2 DUP2 PUSH1 0x3 PUSH3 0x44 DUP4 DUP3 PUSH3 0x30E JUMP JUMPDEST POP PUSH1 0x4 PUSH3 0x53 DUP3 DUP3 PUSH3 0x30E JUMP JUMPDEST POP POP PUSH1 0x1 PUSH1 0x6 SSTORE POP PUSH3 0x68 PUSH1 0x0 CALLER PUSH3 0x9C JUMP JUMPDEST PUSH3 0x94 PUSH32 0x9F2DF0FED2C77648DE5860A4CC508CD0818C85B8B8A1AB4CEEEF8D981C8956A6 CALLER PUSH3 0x9C JUMP JUMPDEST POP POP PUSH3 0x3DA JUMP JUMPDEST PUSH3 0xA8 DUP3 DUP3 PUSH3 0xAC JUMP JUMPDEST POP POP JUMP JUMPDEST PUSH1 0x0 DUP3 DUP2 MSTORE PUSH1 0x5 PUSH1 0x20 SWAP1 DUP2 MSTORE PUSH1 0x40 DUP1 DUP4 KECCAK256 PUSH1 0x1 PUSH1 0x1 PUSH1 0xA0 SHL SUB DUP6 AND DUP5 MSTORE SWAP1 SWAP2 MSTORE SWAP1 KECCAK256 SLOAD PUSH1 0xFF AND PUSH3 0xA8 JUMPI PUSH1 0x0 DUP3 DUP2 MSTORE PUSH1 0x5 PUSH1 0x20 SWAP1 DUP2 MSTORE PUSH1 0x40 DUP1 DUP4 KECCAK256 PUSH1 0x1 PUSH1 0x1 PUSH1 0xA0 SHL SUB DUP6 AND DUP5 MSTORE SWAP1 SWAP2 MSTORE SWAP1 KECCAK256 DUP1 SLOAD PUSH1 0xFF NOT AND PUSH1 0x1 OR SWAP1 SSTORE PUSH3 0x10C CALLER SWAP1 JUMP JUMPDEST PUSH1 0x1 PUSH1 0x1 PUSH1 0xA0 SHL SUB AND DUP2 PUSH1 0x1 PUSH1 0x1 PUSH1 0xA0 SHL SUB AND DUP4 PUSH32 0x2F8788117E7EFF1D82E926EC794901D17C78024A50270940304540A733656F0D PUSH1 0x40 MLOAD PUSH1 0x40 MLOAD DUP1 SWAP2 SUB SWAP1 LOG4 POP POP JUMP JUMPDEST PUSH4 0x4E487B71 PUSH1 0xE0 SHL PUSH1 0x0 MSTORE PUSH1 0x41 PUSH1 0x4 MSTORE PUSH1 0x24 PUSH1 0x0 REVERT JUMPDEST PUSH1 0x0 DUP3 PUSH1 0x1F DUP4 ADD SLT PUSH3 0x178 JUMPI PUSH1 0x0 DUP1 REVERT JUMPDEST DUP2 MLOAD PUSH1 0x1 PUSH1 0x1 PUSH1 0x40 SHL SUB DUP1 DUP3 GT ISZERO PUSH3 0x195 JUMPI PUSH3 0x195 PUSH3 0x150 JUMP JUMPDEST PUSH1 0x40 MLOAD PUSH1 0x1F DUP4 ADD PUSH1 0x1F NOT SWAP1 DUP2 AND PUSH1 0x3F ADD AND DUP2 ADD SWAP1 DUP3 DUP3 GT DUP2 DUP4 LT OR ISZERO PUSH3 0x1C0 JUMPI PUSH3 0x1C0 PUSH3 0x150 JUMP JUMPDEST DUP2 PUSH1 0x40 MSTORE DUP4 DUP2 MSTORE PUSH1 0x20 SWAP3 POP DUP7 DUP4 DUP6 DUP9 ADD ADD GT ISZERO PUSH3 0x1DD JUMPI PUSH1 0x0 DUP1 REVERT JUMPDEST PUSH1 0x0 SWAP2 POP JUMPDEST DUP4 DUP3 LT ISZERO PUSH3 0x201 JUMPI DUP6 DUP3 ADD DUP4 ADD MLOAD DUP2 DUP4 ADD DUP5 ADD MSTORE SWAP1 DUP3 ADD SWAP1 PUSH3 0x1E2 JUMP JUMPDEST PUSH1 0x0 SWAP4 DUP2 ADD SWAP1 SWAP3 ADD SWAP3 SWAP1 SWAP3 MSTORE SWAP5 SWAP4 POP POP POP POP JUMP JUMPDEST PUSH1 0x0 DUP1 PUSH1 0x40 DUP4 DUP6 SUB SLT ISZERO PUSH3 0x229 JUMPI PUSH1 0x0 DUP1 REVERT JUMPDEST DUP3 MLOAD PUSH1 0x1 PUSH1 0x1 PUSH1 0x40 SHL SUB DUP1 DUP3 GT ISZERO PUSH3 0x241 JUMPI PUSH1 0x0 DUP1 REVERT JUMPDEST PUSH3 0x24F DUP7 DUP4 DUP8 ADD PUSH3 0x166 JUMP JUMPDEST SWAP4 POP PUSH1 0x20 DUP6 ADD MLOAD SWAP2 POP DUP1 DUP3 GT ISZERO PUSH3 0x266 JUMPI PUSH1 0x0 DUP1 REVERT JUMPDEST POP PUSH3 0x275 DUP6 DUP3 DUP7 ADD PUSH3 0x166 JUMP JUMPDEST SWAP2 POP POP SWAP3 POP SWAP3 SWAP1 POP JUMP JUMPDEST PUSH1 0x1 DUP2 DUP2 SHR SWAP1 DUP3 AND DUP1 PUSH3 0x294 JUMPI PUSH1 0x7F DUP3 AND SWAP2 POP JUMPDEST PUSH1 0x20 DUP3 LT DUP2 SUB PUSH3 0x2B5 JUMPI PUSH4 0x4E487B71 PUSH1 0xE0 SHL PUSH1 0x0 MSTORE PUSH1 0x22 PUSH1 0x4 MSTORE PUSH1 0x24 PUSH1 0x0 REVERT JUMPDEST POP SWAP2 SWAP1 POP JUMP JUMPDEST PUSH1 0x1F DUP3 GT ISZERO PUSH3 0x309 JUMPI PUSH1 0x0 DUP2 DUP2 MSTORE PUSH1 0x20 DUP2 KECCAK256 PUSH1 0x1F DUP6 ADD PUSH1 0x5 SHR DUP2 ADD PUSH1 0x20 DUP7 LT ISZERO PUSH3 0x2E4 JUMPI POP DUP1 JUMPDEST PUSH1 0x1F DUP6 ADD PUSH1 0x5 SHR DUP3 ADD SWAP2 POP JUMPDEST DUP2 DUP2 LT ISZERO PUSH3 0x305 JUMPI DUP3 DUP2 SSTORE PUSH1 0x1 ADD PUSH3 0x2F0 JUMP JUMPDEST POP POP POP JUMPDEST POP POP POP JUMP JUMPDEST DUP2 MLOAD PUSH1 0x1 PUSH1 0x1 PUSH1 0x40 SHL SUB DUP2 GT ISZERO PUSH3 0x32A JUMPI PUSH3 0x32A PUSH3 0x150 JUMP JUMPDEST PUSH3 0x342 DUP2 PUSH3 0x33B DUP5 SLOAD PUSH3 0x27F JUMP JUMPDEST DUP5 PUSH3 0x2BB JUMP JUMPDEST PUSH1 0x20 DUP1 PUSH1 0x1F DUP4 GT PUSH1 0x1 DUP2 EQ PUSH3 0x37A JUMPI PUSH1 0x0 DUP5 ISZERO PUSH3 0x361 JUMPI POP DUP6 DUP4 ADD MLOAD JUMPDEST PUSH1 0x0 NOT PUSH1 0x3 DUP7 SWAP1 SHL SHR NOT AND PUSH1 0x1 DUP6 SWAP1 SHL OR DUP6 SSTORE PUSH3 0x305 JUMP JUMPDEST PUSH1 0x0 DUP6 DUP2 MSTORE PUSH1 0x20 DUP2 KECCAK256 PUSH1 0x1F NOT DUP7 AND SWAP2 JUMPDEST DUP3 DUP2 LT ISZERO PUSH3 0x3AB JUMPI DUP9 DUP7 ADD MLOAD DUP3 SSTORE SWAP5 DUP5 ADD SWAP5 PUSH1 0x1 SWAP1 SWAP2 ADD SWAP1 DUP5 ADD PUSH3 0x38A JUMP JUMPDEST POP DUP6 DUP3 LT ISZERO PUSH3 0x3CA JUMPI DUP8 DUP6 ADD MLOAD PUSH1 0x0 NOT PUSH1 0x3 DUP9 SWAP1 SHL PUSH1 0xF8 AND SHR NOT AND DUP2 SSTORE JUMPDEST POP POP POP POP POP PUSH1 0x1 SWAP1 DUP2 SHL ADD SWAP1 SSTORE POP JUMP JUMPDEST PUSH2 0x2318 DUP1 PUSH3 0x3EA PUSH1 0x0 CODECOPY PUSH1 0x0 RETURN INVALID PUSH1 0x80 PUSH1 0x40 MSTORE CALLVALUE DUP1 ISZERO PUSH2 0x10 JUMPI PUSH1 0x0 DUP1 REVERT JUMPDEST POP PUSH1 0x4 CALLDATASIZE LT PUSH2 0x226 JUMPI PUSH1 0x0 CALLDATALOAD PUSH1 0xE0 SHR DUP1 PUSH4 0x6B5B0CC1 GT PUSH2 0x130 JUMPI DUP1 PUSH4 0xA457C2D7 GT PUSH2 0xB8 JUMPI DUP1 PUSH4 0xD9D98CE4 GT PUSH2 0x7C JUMPI DUP1 PUSH4 0xD9D98CE4 EQ PUSH2 0x4F8 JUMPI DUP1 PUSH4 0xDD62ED3E EQ PUSH2 0x50B JUMPI DUP1 PUSH4 0xDE47A2CC EQ PUSH2 0x51E JUMPI DUP1 PUSH4 0xF3F91FA0 EQ PUSH2 0x52F JUMPI DUP1 PUSH4 0xF457239A EQ PUSH2 0x54F JUMPI PUSH1 0x0 DUP1 REVERT JUMPDEST DUP1 PUSH4 0xA457C2D7 EQ PUSH2 0x474 JUMPI DUP1 PUSH4 0xA9059CBB EQ PUSH2 0x487 JUMPI DUP1 PUSH4 0xB0A06BC2 EQ PUSH2 0x49A JUMPI DUP1 PUSH4 0xB95D47D6 EQ PUSH2 0x4C5 JUMPI DUP1 PUSH4 0xD547741F EQ PUSH2 0x4E5 JUMPI PUSH1 0x0 DUP1 REVERT JUMPDEST DUP1 PUSH4 0x83EC4700 GT PUSH2 0xFF JUMPI DUP1 PUSH4 0x83EC4700 EQ PUSH2 0x40E JUMPI DUP1 PUSH4 0x84955C88 EQ PUSH2 0x431 JUMPI DUP1 PUSH4 0x91D14854 EQ PUSH2 0x451 JUMPI DUP1 PUSH4 0x95D89B41 EQ PUSH2 0x464 JUMPI DUP1 PUSH4 0xA217FDDF EQ PUSH2 0x46C JUMPI PUSH1 0x0 DUP1 REVERT JUMPDEST DUP1 PUSH4 0x6B5B0CC1 EQ PUSH2 0x3AC JUMPI DUP1 PUSH4 0x70A08231 EQ PUSH2 0x3BF JUMPI DUP1 PUSH4 0x7477F36A EQ PUSH2 0x3E8 JUMPI DUP1 PUSH4 0x79CC6790 EQ PUSH2 0x3FB JUMPI PUSH1 0x0 DUP1 REVERT JUMPDEST DUP1 PUSH4 0x36568ABE GT PUSH2 0x1B3 JUMPI DUP1 PUSH4 0x4975448E GT PUSH2 0x182 JUMPI DUP1 PUSH4 0x4975448E EQ PUSH2 0x355 JUMPI DUP1 PUSH4 0x4B9AFA80 EQ PUSH2 0x364 JUMPI DUP1 PUSH4 0x5143E246 EQ PUSH2 0x373 JUMPI DUP1 PUSH4 0x5CFFE9DE EQ PUSH2 0x386 JUMPI DUP1 PUSH4 0x613255AB EQ PUSH2 0x399 JUMPI PUSH1 0x0 DUP1 REVERT JUMPDEST DUP1 PUSH4 0x36568ABE EQ PUSH2 0x2FA JUMPI DUP1 PUSH4 0x39509351 EQ PUSH2 0x30D JUMPI DUP1 PUSH4 0x42966C68 EQ PUSH2 0x320 JUMPI DUP1 PUSH4 0x485D3834 EQ PUSH2 0x333 JUMPI PUSH1 0x0 DUP1 REVERT JUMPDEST DUP1 PUSH4 0x18160DDD GT PUSH2 0x1FA JUMPI DUP1 PUSH4 0x18160DDD EQ PUSH2 0x290 JUMPI DUP1 PUSH4 0x23B872DD EQ PUSH2 0x2A2 JUMPI DUP1 PUSH4 0x248A9CA3 EQ PUSH2 0x2B5 JUMPI DUP1 PUSH4 0x2F2FF15D EQ PUSH2 0x2D8 JUMPI DUP1 PUSH4 0x313CE567 EQ PUSH2 0x2EB JUMPI PUSH1 0x0 DUP1 REVERT JUMPDEST DUP1 PUSH3 0x168CE7 EQ PUSH2 0x22B JUMPI DUP1 PUSH4 0x1FFC9A7 EQ PUSH2 0x240 JUMPI DUP1 PUSH4 0x6FDDE03 EQ PUSH2 0x268 JUMPI DUP1 PUSH4 0x95EA7B3 EQ PUSH2 0x27D JUMPI JUMPDEST PUSH1 0x0 DUP1 REVERT JUMPDEST PUSH2 0x23E PUSH2 0x239 CALLDATASIZE PUSH1 0x4 PUSH2 0x1ECA JUMP JUMPDEST PUSH2 0x562 JUMP JUMPDEST STOP JUMPDEST PUSH2 0x253 PUSH2 0x24E CALLDATASIZE PUSH1 0x4 PUSH2 0x1EE7 JUMP JUMPDEST PUSH2 0x694 JUMP JUMPDEST PUSH1 0x40 MLOAD SWAP1 ISZERO ISZERO DUP2 MSTORE PUSH1 0x20 ADD JUMPDEST PUSH1 0x40 MLOAD DUP1 SWAP2 SUB SWAP1 RETURN JUMPDEST PUSH2 0x270 PUSH2 0x6CB JUMP JUMPDEST PUSH1 0x40 MLOAD PUSH2 0x25F SWAP2 SWAP1 PUSH2 0x1F35 JUMP JUMPDEST PUSH2 0x253 PUSH2 0x28B CALLDATASIZE PUSH1 0x4 PUSH2 0x1F68 JUMP JUMPDEST PUSH2 0x75D JUMP JUMPDEST PUSH1 0x2 SLOAD JUMPDEST PUSH1 0x40 MLOAD SWAP1 DUP2 MSTORE PUSH1 0x20 ADD PUSH2 0x25F JUMP JUMPDEST PUSH2 0x253 PUSH2 0x2B0 CALLDATASIZE PUSH1 0x4 PUSH2 0x1F94 JUMP JUMPDEST PUSH2 0x775 JUMP JUMPDEST PUSH2 0x294 PUSH2 0x2C3 CALLDATASIZE PUSH1 0x4 PUSH2 0x1FD5 JUMP JUMPDEST PUSH1 0x0 SWAP1 DUP2 MSTORE PUSH1 0x5 PUSH1 0x20 MSTORE PUSH1 0x40 SWAP1 KECCAK256 PUSH1 0x1 ADD SLOAD SWAP1 JUMP JUMPDEST PUSH2 0x23E PUSH2 0x2E6 CALLDATASIZE PUSH1 0x4 PUSH2 0x1FEE JUMP JUMPDEST PUSH2 0x799 JUMP JUMPDEST PUSH1 0x40 MLOAD PUSH1 0x12 DUP2 MSTORE PUSH1 0x20 ADD PUSH2 0x25F JUMP JUMPDEST PUSH2 0x23E PUSH2 0x308 CALLDATASIZE PUSH1 0x4 PUSH2 0x1FEE JUMP JUMPDEST PUSH2 0x7C3 JUMP JUMPDEST PUSH2 0x253 PUSH2 0x31B CALLDATASIZE PUSH1 0x4 PUSH2 0x1F68 JUMP JUMPDEST PUSH2 0x83D JUMP JUMPDEST PUSH2 0x23E PUSH2 0x32E CALLDATASIZE PUSH1 0x4 PUSH2 0x1FD5 JUMP JUMPDEST PUSH2 0x85F JUMP JUMPDEST PUSH2 0x33C PUSH2 0xE10 DUP2 JUMP JUMPDEST PUSH1 0x40 MLOAD PUSH8 0xFFFFFFFFFFFFFFFF SWAP1 SWAP2 AND DUP2 MSTORE PUSH1 0x20 ADD PUSH2 0x25F JUMP JUMPDEST PUSH2 0x294 PUSH8 0x29A2241AF62C0000 DUP2 JUMP JUMPDEST PUSH2 0x294 PUSH8 0xDE0B6B3A7640000 DUP2 JUMP JUMPDEST PUSH2 0x23E PUSH2 0x381 CALLDATASIZE PUSH1 0x4 PUSH2 0x1F68 JUMP JUMPDEST PUSH2 0x86C JUMP JUMPDEST PUSH2 0x253 PUSH2 0x394 CALLDATASIZE PUSH1 0x4 PUSH2 0x201E JUMP JUMPDEST PUSH2 0x8AA JUMP JUMPDEST PUSH2 0x294 PUSH2 0x3A7 CALLDATASIZE PUSH1 0x4 PUSH2 0x1ECA JUMP JUMPDEST PUSH2 0x93B JUMP JUMPDEST PUSH2 0x23E PUSH2 0x3BA CALLDATASIZE PUSH1 0x4 PUSH2 0x1ECA JUMP JUMPDEST PUSH2 0x963 JUMP JUMPDEST PUSH2 0x294 PUSH2 0x3CD CALLDATASIZE PUSH1 0x4 PUSH2 0x1ECA JUMP JUMPDEST PUSH1 0x1 PUSH1 0x1 PUSH1 0xA0 SHL SUB AND PUSH1 0x0 SWAP1 DUP2 MSTORE PUSH1 0x20 DUP2 SWAP1 MSTORE PUSH1 0x40 SWAP1 KECCAK256 SLOAD SWAP1 JUMP JUMPDEST PUSH2 0x23E PUSH2 0x3F6 CALLDATASIZE PUSH1 0x4 PUSH2 0x1F68 JUMP JUMPDEST PUSH2 0xAF5 JUMP JUMPDEST PUSH2 0x23E PUSH2 0x409 CALLDATASIZE PUSH1 0x4 PUSH2 0x1F68 JUMP JUMPDEST PUSH2 0xB5B JUMP JUMPDEST PUSH2 0x253 PUSH2 0x41C CALLDATASIZE PUSH1 0x4 PUSH2 0x1ECA JUMP JUMPDEST PUSH1 0xA PUSH1 0x20 MSTORE PUSH1 0x0 SWAP1 DUP2 MSTORE PUSH1 0x40 SWAP1 KECCAK256 SLOAD PUSH1 0xFF AND DUP2 JUMP JUMPDEST PUSH2 0x294 PUSH2 0x43F CALLDATASIZE PUSH1 0x4 PUSH2 0x1ECA JUMP JUMPDEST PUSH1 0x9 PUSH1 0x20 MSTORE PUSH1 0x0 SWAP1 DUP2 MSTORE PUSH1 0x40 SWAP1 KECCAK256 SLOAD DUP2 JUMP JUMPDEST PUSH2 0x253 PUSH2 0x45F CALLDATASIZE PUSH1 0x4 PUSH2 0x1FEE JUMP JUMPDEST PUSH2 0xB70 JUMP JUMPDEST PUSH2 0x270 PUSH2 0xB9B JUMP JUMPDEST PUSH2 0x294 PUSH1 0x0 DUP2 JUMP JUMPDEST PUSH2 0x253 PUSH2 0x482 CALLDATASIZE PUSH1 0x4 PUSH2 0x1F68 JUMP JUMPDEST PUSH2 0xBAA JUMP JUMPDEST PUSH2 0x253 PUSH2 0x495 CALLDATASIZE PUSH1 0x4 PUSH2 0x1F68 JUMP JUMPDEST PUSH2 0xC25 JUMP JUMPDEST PUSH1 0xC SLOAD PUSH2 0x4AD SWAP1 PUSH1 0x1 PUSH1 0x1 PUSH1 0xA0 SHL SUB AND DUP2 JUMP JUMPDEST PUSH1 0x40 MLOAD PUSH1 0x1 PUSH1 0x1 PUSH1 0xA0 SHL SUB SWAP1 SWAP2 AND DUP2 MSTORE PUSH1 0x20 ADD PUSH2 0x25F JUMP JUMPDEST PUSH2 0x294 PUSH2 0x4D3 CALLDATASIZE PUSH1 0x4 PUSH2 0x1ECA JUMP JUMPDEST PUSH1 0x8 PUSH1 0x20 MSTORE PUSH1 0x0 SWAP1 DUP2 MSTORE PUSH1 0x40 SWAP1 KECCAK256 SLOAD DUP2 JUMP JUMPDEST PUSH2 0x23E PUSH2 0x4F3 CALLDATASIZE PUSH1 0x4 PUSH2 0x1FEE JUMP JUMPDEST PUSH2 0xC33 JUMP JUMPDEST PUSH2 0x294 PUSH2 0x506 CALLDATASIZE PUSH1 0x4 PUSH2 0x1F68 JUMP JUMPDEST PUSH2 0xC58 JUMP JUMPDEST PUSH2 0x294 PUSH2 0x519 CALLDATASIZE PUSH1 0x4 PUSH2 0x20BD JUMP JUMPDEST PUSH2 0xCBC JUMP JUMPDEST PUSH2 0x294 PUSH10 0xD3C21BCECCEDA1000000 DUP2 JUMP JUMPDEST PUSH2 0x294 PUSH2 0x53D CALLDATASIZE PUSH1 0x4 PUSH2 0x1ECA JUMP JUMPDEST PUSH1 0xB PUSH1 0x20 MSTORE PUSH1 0x0 SWAP1 DUP2 MSTORE PUSH1 0x40 SWAP1 KECCAK256 SLOAD DUP2 JUMP JUMPDEST PUSH2 0x23E PUSH2 0x55D CALLDATASIZE PUSH1 0x4 PUSH2 0x1ECA JUMP JUMPDEST PUSH2 0xCE7 JUMP JUMPDEST PUSH32 0x51785D261C3B3E8C2CFE2D0E108B9AB2B1FB703FF9E9E49ABA4EBDC85C36152B PUSH2 0x58C DUP2 PUSH2 0xDC1 JUMP JUMPDEST PUSH2 0x594 PUSH2 0xDCB JUMP JUMPDEST PUSH1 0x1 PUSH1 0x1 PUSH1 0xA0 SHL SUB DUP3 AND PUSH1 0x0 SWAP1 DUP2 MSTORE PUSH1 0xA PUSH1 0x20 MSTORE PUSH1 0x40 SWAP1 KECCAK256 SLOAD PUSH1 0xFF AND ISZERO PUSH2 0x602 JUMPI PUSH1 0x40 MLOAD PUSH3 0x461BCD PUSH1 0xE5 SHL DUP2 MSTORE PUSH1 0x20 PUSH1 0x4 DUP3 ADD MSTORE PUSH1 0x1C PUSH1 0x24 DUP3 ADD MSTORE PUSH32 0x5369676E757020626F6E757320616C726561647920636C61696D656400000000 PUSH1 0x44 DUP3 ADD MSTORE PUSH1 0x64 ADD JUMPDEST PUSH1 0x40 MLOAD DUP1 SWAP2 SUB SWAP1 REVERT JUMPDEST PUSH2 0x614 DUP3 PUSH8 0x29A2241AF62C0000 PUSH2 0xE24 JUMP JUMPDEST PUSH2 0x626 DUP3 PUSH8 0x29A2241AF62C0000 PUSH2 0xEF7 JUMP JUMPDEST PUSH1 0x1 PUSH1 0x1 PUSH1 0xA0 SHL SUB DUP3 AND PUSH1 0x0 DUP2 DUP2 MSTORE PUSH1 0xA PUSH1 0x20 SWAP1 DUP2 MSTORE PUSH1 0x40 DUP1 DUP4 KECCAK256 DUP1 SLOAD PUSH1 0xFF NOT AND PUSH1 0x1 OR SWAP1 SSTORE PUSH1 0xB SWAP1 SWAP2 MSTORE DUP1 DUP3 KECCAK256 TIMESTAMP SWAP1 SSTORE MLOAD PUSH8 0x29A2241AF62C0000 SWAP3 SWAP2 PUSH32 0xADE39D03F7E1567481089A1F27266F44EC23A12393C518CEF2F85E2CC2EC173F SWAP2 LOG3 PUSH2 0x690 PUSH1 0x1 PUSH1 0x6 SSTORE JUMP JUMPDEST POP POP JUMP JUMPDEST PUSH1 0x0 PUSH1 0x1 PUSH1 0x1 PUSH1 0xE0 SHL SUB NOT DUP3 AND PUSH4 0x7965DB0B PUSH1 0xE0 SHL EQ DUP1 PUSH2 0x6C5 JUMPI POP PUSH4 0x1FFC9A7 PUSH1 0xE0 SHL PUSH1 0x1 PUSH1 0x1 PUSH1 0xE0 SHL SUB NOT DUP4 AND EQ JUMPDEST SWAP3 SWAP2 POP POP JUMP JUMPDEST PUSH1 0x60 PUSH1 0x3 DUP1 SLOAD PUSH2 0x6DA SWAP1 PUSH2 0x20EB JUMP JUMPDEST DUP1 PUSH1 0x1F ADD PUSH1 0x20 DUP1 SWAP2 DIV MUL PUSH1 0x20 ADD PUSH1 0x40 MLOAD SWAP1 DUP2 ADD PUSH1 0x40 MSTORE DUP1 SWAP3 SWAP2 SWAP1 DUP2 DUP2 MSTORE PUSH1 0x20 ADD DUP3 DUP1 SLOAD PUSH2 0x706 SWAP1 PUSH2 0x20EB JUMP JUMPDEST DUP1 ISZERO PUSH2 0x753 JUMPI DUP1 PUSH1 0x1F LT PUSH2 0x728 JUMPI PUSH2 0x100 DUP1 DUP4 SLOAD DIV MUL DUP4 MSTORE SWAP2 PUSH1 0x20 ADD SWAP2 PUSH2 0x753 JUMP JUMPDEST DUP3 ADD SWAP2 SWAP1 PUSH1 0x0 MSTORE PUSH1 0x20 PUSH1 0x0 KECCAK256 SWAP1 JUMPDEST DUP2 SLOAD DUP2 MSTORE SWAP1 PUSH1 0x1 ADD SWAP1 PUSH1 0x20 ADD DUP1 DUP4 GT PUSH2 0x736 JUMPI DUP3 SWAP1 SUB PUSH1 0x1F AND DUP3 ADD SWAP2 JUMPDEST POP POP POP POP POP SWAP1 POP SWAP1 JUMP JUMPDEST PUSH1 0x0 CALLER PUSH2 0x76B DUP2 DUP6 DUP6 PUSH2 0x101A JUMP JUMPDEST POP PUSH1 0x1 SWAP4 SWAP3 POP POP POP JUMP JUMPDEST PUSH1 0x0 CALLER PUSH2 0x783 DUP6 DUP3 DUP6 PUSH2 0x113E JUMP JUMPDEST PUSH2 0x78E DUP6 DUP6 DUP6 PUSH2 0x11B8 JUMP JUMPDEST POP PUSH1 0x1 SWAP5 SWAP4 POP POP POP POP JUMP JUMPDEST PUSH1 0x0 DUP3 DUP2 MSTORE PUSH1 0x5 PUSH1 0x20 MSTORE PUSH1 0x40 SWAP1 KECCAK256 PUSH1 0x1 ADD SLOAD PUSH2 0x7B4 DUP2 PUSH2 0xDC1 JUMP JUMPDEST PUSH2 0x7BE DUP4 DUP4 PUSH2 0x136D JUMP JUMPDEST POP POP POP JUMP JUMPDEST PUSH1 0x1 PUSH1 0x1 PUSH1 0xA0 SHL SUB DUP2 AND CALLER EQ PUSH2 0x833 JUMPI PUSH1 0x40 MLOAD PUSH3 0x461BCD PUSH1 0xE5 SHL DUP2 MSTORE PUSH1 0x20 PUSH1 0x4 DUP3 ADD MSTORE PUSH1 0x2F PUSH1 0x24 DUP3 ADD MSTORE PUSH32 0x416363657373436F6E74726F6C3A2063616E206F6E6C792072656E6F756E6365 PUSH1 0x44 DUP3 ADD MSTORE PUSH15 0x103937B632B9903337B91039B2B633 PUSH1 0x89 SHL PUSH1 0x64 DUP3 ADD MSTORE PUSH1 0x84 ADD PUSH2 0x5F9 JUMP JUMPDEST PUSH2 0x690 DUP3 DUP3 PUSH2 0x13F3 JUMP JUMPDEST PUSH1 0x0 CALLER PUSH2 0x76B DUP2 DUP6 DUP6 PUSH2 0x850 DUP4 DUP4 PUSH2 0xCBC JUMP JUMPDEST PUSH2 0x85A SWAP2 SWAP1 PUSH2 0x213B JUMP JUMPDEST PUSH2 0x101A JUMP JUMPDEST PUSH2 0x869 CALLER DUP3 PUSH2 0x145A JUMP JUMPDEST POP JUMP JUMPDEST PUSH32 0x9F2DF0FED2C77648DE5860A4CC508CD0818C85B8B8A1AB4CEEEF8D981C8956A6 PUSH2 0x896 DUP2 PUSH2 0xDC1 JUMP JUMPDEST PUSH2 0x8A0 DUP4 DUP4 PUSH2 0xE24 JUMP JUMPDEST PUSH2 0x7BE DUP4 DUP4 PUSH2 0xEF7 JUMP JUMPDEST PUSH1 0x1 PUSH1 0x1 PUSH1 0xA0 SHL SUB DUP6 AND PUSH1 0x0 SWAP1 DUP2 MSTORE PUSH1 0x8 PUSH1 0x20 MSTORE PUSH1 0x40 DUP2 KECCAK256 DUP1 SLOAD DUP6 SWAP2 SWAP1 DUP4 SWAP1 PUSH2 0x8D4 SWAP1 DUP5 SWAP1 PUSH2 0x213B JUMP JUMPDEST SWAP1 SWAP2 SSTORE POP POP CALLER PUSH1 0x0 SWAP1 DUP2 MSTORE PUSH1 0x8 PUSH1 0x20 MSTORE PUSH1 0x40 DUP2 KECCAK256 DUP1 SLOAD DUP7 SWAP3 SWAP1 PUSH2 0x8F8 SWAP1 DUP5 SWAP1 PUSH2 0x213B JUMP JUMPDEST SWAP1 SWAP2 SSTORE POP PUSH1 0x0 SWAP1 POP PUSH2 0x90D DUP8 DUP8 DUP8 DUP8 DUP8 PUSH2 0x159F JUMP JUMPDEST PUSH1 0x1 PUSH1 0x1 PUSH1 0xA0 SHL SUB DUP9 AND PUSH1 0x0 SWAP1 DUP2 MSTORE PUSH1 0x8 PUSH1 0x20 MSTORE PUSH1 0x40 DUP1 DUP3 KECCAK256 DUP3 SWAP1 SSTORE CALLER DUP3 MSTORE DUP2 KECCAK256 SSTORE SWAP2 POP POP SWAP6 SWAP5 POP POP POP POP POP JUMP JUMPDEST PUSH1 0x0 PUSH1 0x1 PUSH1 0x1 PUSH1 0xA0 SHL SUB DUP3 AND ADDRESS EQ PUSH2 0x954 JUMPI PUSH1 0x0 PUSH2 0x6C5 JUMP JUMPDEST PUSH1 0x2 SLOAD PUSH2 0x6C5 SWAP1 PUSH1 0x0 NOT PUSH2 0x214E JUMP JUMPDEST PUSH32 0x51785D261C3B3E8C2CFE2D0E108B9AB2B1FB703FF9E9E49ABA4EBDC85C36152B PUSH2 0x98D DUP2 PUSH2 0xDC1 JUMP JUMPDEST PUSH2 0x995 PUSH2 0xDCB JUMP JUMPDEST PUSH1 0x1 PUSH1 0x1 PUSH1 0xA0 SHL SUB DUP3 AND PUSH1 0x0 SWAP1 DUP2 MSTORE PUSH1 0xA PUSH1 0x20 MSTORE PUSH1 0x40 SWAP1 KECCAK256 SLOAD PUSH1 0xFF AND PUSH2 0x9FD JUMPI PUSH1 0x40 MLOAD PUSH3 0x461BCD PUSH1 0xE5 SHL DUP2 MSTORE PUSH1 0x20 PUSH1 0x4 DUP3 ADD MSTORE PUSH1 0x1C PUSH1 0x24 DUP3 ADD MSTORE PUSH32 0x5369676E757020626F6E7573206E6F7420636C61696D65642079657400000000 PUSH1 0x44 DUP3 ADD MSTORE PUSH1 0x64 ADD PUSH2 0x5F9 JUMP JUMPDEST PUSH1 0x1 PUSH1 0x1 PUSH1 0xA0 SHL SUB DUP3 AND PUSH1 0x0 SWAP1 DUP2 MSTORE PUSH1 0xB PUSH1 0x20 MSTORE PUSH1 0x40 SWAP1 KECCAK256 SLOAD PUSH2 0x258 SWAP1 PUSH2 0xA24 SWAP1 TIMESTAMP PUSH2 0x214E JUMP JUMPDEST LT ISZERO PUSH2 0xA7C JUMPI PUSH1 0x40 MLOAD PUSH3 0x461BCD PUSH1 0xE5 SHL DUP2 MSTORE PUSH1 0x20 PUSH1 0x4 DUP3 ADD MSTORE PUSH1 0x21 PUSH1 0x24 DUP3 ADD MSTORE PUSH32 0x4461696C7920626F6E757320616C726561647920636C61696D656420746F6461 PUSH1 0x44 DUP3 ADD MSTORE PUSH1 0x79 PUSH1 0xF8 SHL PUSH1 0x64 DUP3 ADD MSTORE PUSH1 0x84 ADD PUSH2 0x5F9 JUMP JUMPDEST PUSH2 0xA8E DUP3 PUSH8 0xDE0B6B3A7640000 PUSH2 0xE24 JUMP JUMPDEST PUSH2 0xAA0 DUP3 PUSH8 0xDE0B6B3A7640000 PUSH2 0xEF7 JUMP JUMPDEST PUSH1 0x1 PUSH1 0x1 PUSH1 0xA0 SHL SUB DUP3 AND PUSH1 0x0 DUP2 DUP2 MSTORE PUSH1 0xB PUSH1 0x20 MSTORE PUSH1 0x40 DUP1 DUP3 KECCAK256 TIMESTAMP SWAP1 SSTORE MLOAD PUSH8 0xDE0B6B3A7640000 SWAP3 SWAP2 PUSH32 0xD45E91D4AFC2D881A07573DEC52EA6C5D8AA811076201C1281A280878D26A1DE SWAP2 LOG3 PUSH2 0x690 PUSH1 0x1 PUSH1 0x6 SSTORE JUMP JUMPDEST PUSH32 0x9F2DF0FED2C77648DE5860A4CC508CD0818C85B8B8A1AB4CEEEF8D981C8956A6 PUSH2 0xB1F DUP2 PUSH2 0xDC1 JUMP JUMPDEST PUSH2 0xB29 DUP4 DUP4 PUSH2 0xE24 JUMP JUMPDEST PUSH1 0x1 PUSH1 0x1 PUSH1 0xA0 SHL SUB DUP4 AND PUSH1 0x0 SWAP1 DUP2 MSTORE PUSH1 0x9 PUSH1 0x20 MSTORE PUSH1 0x40 DUP2 KECCAK256 DUP1 SLOAD DUP5 SWAP3 SWAP1 PUSH2 0xB51 SWAP1 DUP5 SWAP1 PUSH2 0x213B JUMP JUMPDEST SWAP1 SWAP2 SSTORE POP POP POP POP POP JUMP JUMPDEST PUSH2 0xB66 DUP3 CALLER DUP4 PUSH2 0x113E JUMP JUMPDEST PUSH2 0x690 DUP3 DUP3 PUSH2 0x145A JUMP JUMPDEST PUSH1 0x0 SWAP2 DUP3 MSTORE PUSH1 0x5 PUSH1 0x20 SWAP1 DUP2 MSTORE PUSH1 0x40 DUP1 DUP5 KECCAK256 PUSH1 0x1 PUSH1 0x1 PUSH1 0xA0 SHL SUB SWAP4 SWAP1 SWAP4 AND DUP5 MSTORE SWAP2 SWAP1 MSTORE SWAP1 KECCAK256 SLOAD PUSH1 0xFF AND SWAP1 JUMP JUMPDEST PUSH1 0x60 PUSH1 0x4 DUP1 SLOAD PUSH2 0x6DA SWAP1 PUSH2 0x20EB JUMP JUMPDEST PUSH1 0x0 CALLER DUP2 PUSH2 0xBB8 DUP3 DUP7 PUSH2 0xCBC JUMP JUMPDEST SWAP1 POP DUP4 DUP2 LT ISZERO PUSH2 0xC18 JUMPI PUSH1 0x40 MLOAD PUSH3 0x461BCD PUSH1 0xE5 SHL DUP2 MSTORE PUSH1 0x20 PUSH1 0x4 DUP3 ADD MSTORE PUSH1 0x25 PUSH1 0x24 DUP3 ADD MSTORE PUSH32 0x45524332303A2064656372656173656420616C6C6F77616E63652062656C6F77 PUSH1 0x44 DUP3 ADD MSTORE PUSH5 0x207A65726F PUSH1 0xD8 SHL PUSH1 0x64 DUP3 ADD MSTORE PUSH1 0x84 ADD PUSH2 0x5F9 JUMP JUMPDEST PUSH2 0x78E DUP3 DUP7 DUP7 DUP5 SUB PUSH2 0x101A JUMP JUMPDEST PUSH1 0x0 CALLER PUSH2 0x76B DUP2 DUP6 DUP6 PUSH2 0x11B8 JUMP JUMPDEST PUSH1 0x0 DUP3 DUP2 MSTORE PUSH1 0x5 PUSH1 0x20 MSTORE PUSH1 0x40 SWAP1 KECCAK256 PUSH1 0x1 ADD SLOAD PUSH2 0xC4E DUP2 PUSH2 0xDC1 JUMP JUMPDEST PUSH2 0x7BE DUP4 DUP4 PUSH2 0x13F3 JUMP JUMPDEST PUSH1 0x0 PUSH1 0x1 PUSH1 0x1 PUSH1 0xA0 SHL SUB DUP4 AND ADDRESS EQ PUSH2 0xCB2 JUMPI PUSH1 0x40 MLOAD PUSH3 0x461BCD PUSH1 0xE5 SHL DUP2 MSTORE PUSH1 0x20 PUSH1 0x4 DUP3 ADD MSTORE PUSH1 0x1B PUSH1 0x24 DUP3 ADD MSTORE PUSH32 0x4552433230466C6173684D696E743A2077726F6E6720746F6B656E0000000000 PUSH1 0x44 DUP3 ADD MSTORE PUSH1 0x64 ADD PUSH2 0x5F9 JUMP JUMPDEST PUSH1 0x0 JUMPDEST SWAP4 SWAP3 POP POP POP JUMP JUMPDEST PUSH1 0x1 PUSH1 0x1 PUSH1 0xA0 SHL SUB SWAP2 DUP3 AND PUSH1 0x0 SWAP1 DUP2 MSTORE PUSH1 0x1 PUSH1 0x20 SWAP1 DUP2 MSTORE PUSH1 0x40 DUP1 DUP4 KECCAK256 SWAP4 SWAP1 SWAP5 AND DUP3 MSTORE SWAP2 SWAP1 SWAP2 MSTORE KECCAK256 SLOAD SWAP1 JUMP JUMPDEST PUSH1 0x0 PUSH2 0xCF2 DUP2 PUSH2 0xDC1 JUMP JUMPDEST PUSH1 0x1 PUSH1 0x1 PUSH1 0xA0 SHL SUB DUP3 AND PUSH2 0xD59 JUMPI PUSH1 0x40 MLOAD PUSH3 0x461BCD PUSH1 0xE5 SHL DUP2 MSTORE PUSH1 0x20 PUSH1 0x4 DUP3 ADD MSTORE PUSH1 0x28 PUSH1 0x24 DUP3 ADD MSTORE PUSH32 0x5A65726F2061646472657373206E6F7420616C6C6F77656420666F72204C5542 PUSH1 0x44 DUP3 ADD MSTORE PUSH8 0x1030BAB1BA34B7B7 PUSH1 0xC1 SHL PUSH1 0x64 DUP3 ADD MSTORE PUSH1 0x84 ADD PUSH2 0x5F9 JUMP JUMPDEST PUSH1 0xC SLOAD PUSH1 0x1 PUSH1 0x1 PUSH1 0xA0 SHL SUB DUP4 DUP2 AND SWAP2 AND EQ PUSH2 0x690 JUMPI PUSH1 0xC DUP1 SLOAD PUSH1 0x1 PUSH1 0x1 PUSH1 0xA0 SHL SUB DUP5 DUP2 AND PUSH1 0x1 PUSH1 0x1 PUSH1 0xA0 SHL SUB NOT DUP4 AND DUP2 OR SWAP1 SWAP4 SSTORE PUSH1 0x40 MLOAD SWAP2 AND SWAP2 SWAP1 DUP3 SWAP1 PUSH32 0x9E65D461655023E5EE934A1969793E5DF8A302F08A5E849EDE5562FD3E80E93E SWAP1 PUSH1 0x0 SWAP1 LOG3 POP POP POP JUMP JUMPDEST PUSH2 0x869 DUP2 CALLER PUSH2 0x1783 JUMP JUMPDEST PUSH1 0x2 PUSH1 0x6 SLOAD SUB PUSH2 0xE1D JUMPI PUSH1 0x40 MLOAD PUSH3 0x461BCD PUSH1 0xE5 SHL DUP2 MSTORE PUSH1 0x20 PUSH1 0x4 DUP3 ADD MSTORE PUSH1 0x1F PUSH1 0x24 DUP3 ADD MSTORE PUSH32 0x5265656E7472616E637947756172643A207265656E7472616E742063616C6C00 PUSH1 0x44 DUP3 ADD MSTORE PUSH1 0x64 ADD PUSH2 0x5F9 JUMP JUMPDEST PUSH1 0x2 PUSH1 0x6 SSTORE JUMP JUMPDEST PUSH1 0x1 PUSH1 0x1 PUSH1 0xA0 SHL SUB DUP3 AND PUSH2 0xE7A JUMPI PUSH1 0x40 MLOAD PUSH3 0x461BCD PUSH1 0xE5 SHL DUP2 MSTORE PUSH1 0x20 PUSH1 0x4 DUP3 ADD MSTORE PUSH1 0x1F PUSH1 0x24 DUP3 ADD MSTORE PUSH32 0x45524332303A206D696E7420746F20746865207A65726F206164647265737300 PUSH1 0x44 DUP3 ADD MSTORE PUSH1 0x64 ADD PUSH2 0x5F9 JUMP JUMPDEST PUSH2 0xE86 PUSH1 0x0 DUP4 DUP4 PUSH2 0x17DC JUMP JUMPDEST DUP1 PUSH1 0x2 PUSH1 0x0 DUP3 DUP3 SLOAD PUSH2 0xE98 SWAP2 SWAP1 PUSH2 0x213B JUMP JUMPDEST SWAP1 SWAP2 SSTORE POP POP PUSH1 0x1 PUSH1 0x1 PUSH1 0xA0 SHL SUB DUP3 AND PUSH1 0x0 DUP2 DUP2 MSTORE PUSH1 0x20 DUP2 DUP2 MSTORE PUSH1 0x40 DUP1 DUP4 KECCAK256 DUP1 SLOAD DUP7 ADD SWAP1 SSTORE MLOAD DUP5 DUP2 MSTORE PUSH32 0xDDF252AD1BE2C89B69C2B068FC378DAA952BA7F163C4A11628F55A4DF523B3EF SWAP2 ADD PUSH1 0x40 MLOAD DUP1 SWAP2 SUB SWAP1 LOG3 PUSH2 0x690 PUSH1 0x0 DUP4 DUP4 PUSH2 0x1893 JUMP JUMPDEST PUSH1 0x0 PUSH2 0xF05 PUSH2 0xE10 TIMESTAMP PUSH2 0x213B JUMP JUMPDEST PUSH1 0x1 PUSH1 0x1 PUSH1 0xA0 SHL SUB DUP5 AND PUSH1 0x0 SWAP1 DUP2 MSTORE PUSH1 0x9 PUSH1 0x20 SWAP1 DUP2 MSTORE PUSH1 0x40 DUP1 DUP4 KECCAK256 SLOAD SWAP2 DUP4 SWAP1 MSTORE SWAP1 SWAP2 KECCAK256 SLOAD SWAP2 SWAP3 POP PUSH2 0xF35 SWAP2 PUSH2 0x214E JUMP JUMPDEST DUP3 GT ISZERO PUSH2 0xF84 JUMPI PUSH1 0x40 MLOAD PUSH3 0x461BCD PUSH1 0xE5 SHL DUP2 MSTORE PUSH1 0x20 PUSH1 0x4 DUP3 ADD MSTORE PUSH1 0x1A PUSH1 0x24 DUP3 ADD MSTORE PUSH32 0x467265652062616C616E6365206C6F636B206578636565646564000000000000 PUSH1 0x44 DUP3 ADD MSTORE PUSH1 0x64 ADD PUSH2 0x5F9 JUMP JUMPDEST PUSH1 0x1 PUSH1 0x1 PUSH1 0xA0 SHL SUB DUP4 AND PUSH1 0x0 DUP2 DUP2 MSTORE PUSH1 0x7 PUSH1 0x20 SWAP1 DUP2 MSTORE PUSH1 0x40 DUP1 DUP4 KECCAK256 DUP2 MLOAD DUP1 DUP4 ADD DUP4 MSTORE PUSH1 0x1 PUSH1 0x1 PUSH1 0xC0 SHL SUB DUP1 DUP10 AND DUP3 MSTORE PUSH8 0xFFFFFFFFFFFFFFFF DUP1 DUP10 AND DUP4 DUP8 ADD SWAP1 DUP2 MSTORE DUP5 SLOAD PUSH1 0x1 DUP2 ADD DUP7 SSTORE SWAP5 DUP9 MSTORE SWAP6 DUP8 KECCAK256 SWAP3 MLOAD SWAP6 MLOAD AND PUSH1 0x1 PUSH1 0xC0 SHL MUL SWAP5 AND SWAP4 SWAP1 SWAP4 OR SWAP3 ADD SWAP2 SWAP1 SWAP2 SSTORE MLOAD DUP4 SWAP3 DUP6 SWAP3 SWAP1 SWAP2 PUSH32 0xD741E738A23FD18A03A26522320D9FC6CAC1FED483E215EA9150FBC2FC43385D SWAP2 SWAP1 LOG4 POP POP POP JUMP JUMPDEST PUSH1 0x1 PUSH1 0x1 PUSH1 0xA0 SHL SUB DUP4 AND PUSH2 0x107C JUMPI PUSH1 0x40 MLOAD PUSH3 0x461BCD PUSH1 0xE5 SHL DUP2 MSTORE PUSH1 0x20 PUSH1 0x4 DUP3 ADD MSTORE PUSH1 0x24 DUP1 DUP3 ADD MSTORE PUSH32 0x45524332303A20617070726F76652066726F6D20746865207A65726F20616464 PUSH1 0x44 DUP3 ADD MSTORE PUSH4 0x72657373 PUSH1 0xE0 SHL PUSH1 0x64 DUP3 ADD MSTORE PUSH1 0x84 ADD PUSH2 0x5F9 JUMP JUMPDEST PUSH1 0x1 PUSH1 0x1 PUSH1 0xA0 SHL SUB DUP3 AND PUSH2 0x10DD JUMPI PUSH1 0x40 MLOAD PUSH3 0x461BCD PUSH1 0xE5 SHL DUP2 MSTORE PUSH1 0x20 PUSH1 0x4 DUP3 ADD MSTORE PUSH1 0x22 PUSH1 0x24 DUP3 ADD MSTORE PUSH32 0x45524332303A20617070726F766520746F20746865207A65726F206164647265 PUSH1 0x44 DUP3 ADD MSTORE PUSH2 0x7373 PUSH1 0xF0 SHL PUSH1 0x64 DUP3 ADD MSTORE PUSH1 0x84 ADD PUSH2 0x5F9 JUMP JUMPDEST PUSH1 0x1 PUSH1 0x1 PUSH1 0xA0 SHL SUB DUP4 DUP2 AND PUSH1 0x0 DUP2 DUP2 MSTORE PUSH1 0x1 PUSH1 0x20 SWAP1 DUP2 MSTORE PUSH1 0x40 DUP1 DUP4 KECCAK256 SWAP5 DUP8 AND DUP1 DUP5 MSTORE SWAP5 DUP3 MSTORE SWAP2 DUP3 SWAP1 KECCAK256 DUP6 SWAP1 SSTORE SWAP1 MLOAD DUP5 DUP2 MSTORE PUSH32 0x8C5BE1E5EBEC7D5BD14F71427D1E84F3DD0314C0F7B2291E5B200AC8C7C3B925 SWAP2 ADD PUSH1 0x40 MLOAD DUP1 SWAP2 SUB SWAP1 LOG3 POP POP POP JUMP JUMPDEST PUSH1 0x0 PUSH2 0x114A DUP5 DUP5 PUSH2 0xCBC JUMP JUMPDEST SWAP1 POP PUSH1 0x0 NOT DUP2 EQ PUSH2 0x11B2 JUMPI DUP2 DUP2 LT ISZERO PUSH2 0x11A5 JUMPI PUSH1 0x40 MLOAD PUSH3 0x461BCD PUSH1 0xE5 SHL DUP2 MSTORE PUSH1 0x20 PUSH1 0x4 DUP3 ADD MSTORE PUSH1 0x1D PUSH1 0x24 DUP3 ADD MSTORE PUSH32 0x45524332303A20696E73756666696369656E7420616C6C6F77616E6365000000 PUSH1 0x44 DUP3 ADD MSTORE PUSH1 0x64 ADD PUSH2 0x5F9 JUMP JUMPDEST PUSH2 0x11B2 DUP5 DUP5 DUP5 DUP5 SUB PUSH2 0x101A JUMP JUMPDEST POP POP POP POP JUMP JUMPDEST PUSH1 0x1 PUSH1 0x1 PUSH1 0xA0 SHL SUB DUP4 AND PUSH2 0x121C JUMPI PUSH1 0x40 MLOAD PUSH3 0x461BCD PUSH1 0xE5 SHL DUP2 MSTORE PUSH1 0x20 PUSH1 0x4 DUP3 ADD MSTORE PUSH1 0x25 PUSH1 0x24 DUP3 ADD MSTORE PUSH32 0x45524332303A207472616E736665722066726F6D20746865207A65726F206164 PUSH1 0x44 DUP3 ADD MSTORE PUSH5 0x6472657373 PUSH1 0xD8 SHL PUSH1 0x64 DUP3 ADD MSTORE PUSH1 0x84 ADD PUSH2 0x5F9 JUMP JUMPDEST PUSH1 0x1 PUSH1 0x1 PUSH1 0xA0 SHL SUB DUP3 AND PUSH2 0x127E JUMPI PUSH1 0x40 MLOAD PUSH3 0x461BCD PUSH1 0xE5 SHL DUP2 MSTORE PUSH1 0x20 PUSH1 0x4 DUP3 ADD MSTORE PUSH1 0x23 PUSH1 0x24 DUP3 ADD MSTORE PUSH32 0x45524332303A207472616E7366657220746F20746865207A65726F2061646472 PUSH1 0x44 DUP3 ADD MSTORE PUSH3 0x657373 PUSH1 0xE8 SHL PUSH1 0x64 DUP3 ADD MSTORE PUSH1 0x84 ADD PUSH2 0x5F9 JUMP JUMPDEST PUSH2 0x1289 DUP4 DUP4 DUP4 PUSH2 0x17DC JUMP JUMPDEST PUSH1 0x1 PUSH1 0x1 PUSH1 0xA0 SHL SUB DUP4 AND PUSH1 0x0 SWAP1 DUP2 MSTORE PUSH1 0x20 DUP2 SWAP1 MSTORE PUSH1 0x40 SWAP1 KECCAK256 SLOAD DUP2 DUP2 LT ISZERO PUSH2 0x1301 JUMPI PUSH1 0x40 MLOAD PUSH3 0x461BCD PUSH1 0xE5 SHL DUP2 MSTORE PUSH1 0x20 PUSH1 0x4 DUP3 ADD MSTORE PUSH1 0x26 PUSH1 0x24 DUP3 ADD MSTORE PUSH32 0x45524332303A207472616E7366657220616D6F756E7420657863656564732062 PUSH1 0x44 DUP3 ADD MSTORE PUSH6 0x616C616E6365 PUSH1 0xD0 SHL PUSH1 0x64 DUP3 ADD MSTORE PUSH1 0x84 ADD PUSH2 0x5F9 JUMP JUMPDEST PUSH1 0x1 PUSH1 0x1 PUSH1 0xA0 SHL SUB DUP5 DUP2 AND PUSH1 0x0 DUP2 DUP2 MSTORE PUSH1 0x20 DUP2 DUP2 MSTORE PUSH1 0x40 DUP1 DUP4 KECCAK256 DUP8 DUP8 SUB SWAP1 SSTORE SWAP4 DUP8 AND DUP1 DUP4 MSTORE SWAP2 DUP5 SWAP1 KECCAK256 DUP1 SLOAD DUP8 ADD SWAP1 SSTORE SWAP3 MLOAD DUP6 DUP2 MSTORE SWAP1 SWAP3 PUSH32 0xDDF252AD1BE2C89B69C2B068FC378DAA952BA7F163C4A11628F55A4DF523B3EF SWAP2 ADD PUSH1 0x40 MLOAD DUP1 SWAP2 SUB SWAP1 LOG3 PUSH2 0x11B2 DUP5 DUP5 DUP5 PUSH2 0x1893 JUMP JUMPDEST PUSH2 0x1377 DUP3 DUP3 PUSH2 0xB70 JUMP JUMPDEST PUSH2 0x690 JUMPI PUSH1 0x0 DUP3 DUP2 MSTORE PUSH1 0x5 PUSH1 0x20 SWAP1 DUP2 MSTORE PUSH1 0x40 DUP1 DUP4 KECCAK256 PUSH1 0x1 PUSH1 0x1 PUSH1 0xA0 SHL SUB DUP6 AND DUP5 MSTORE SWAP1 SWAP2 MSTORE SWAP1 KECCAK256 DUP1 SLOAD PUSH1 0xFF NOT AND PUSH1 0x1 OR SWAP1 SSTORE PUSH2 0x13AF CALLER SWAP1 JUMP JUMPDEST PUSH1 0x1 PUSH1 0x1 PUSH1 0xA0 SHL SUB AND DUP2 PUSH1 0x1 PUSH1 0x1 PUSH1 0xA0 SHL SUB AND DUP4 PUSH32 0x2F8788117E7EFF1D82E926EC794901D17C78024A50270940304540A733656F0D PUSH1 0x40 MLOAD PUSH1 0x40 MLOAD DUP1 SWAP2 SUB SWAP1 LOG4 POP POP JUMP JUMPDEST PUSH2 0x13FD DUP3 DUP3 PUSH2 0xB70 JUMP JUMPDEST ISZERO PUSH2 0x690 JUMPI PUSH1 0x0 DUP3 DUP2 MSTORE PUSH1 0x5 PUSH1 0x20 SWAP1 DUP2 MSTORE PUSH1 0x40 DUP1 DUP4 KECCAK256 PUSH1 0x1 PUSH1 0x1 PUSH1 0xA0 SHL SUB DUP6 AND DUP1 DUP6 MSTORE SWAP3 MSTORE DUP1 DUP4 KECCAK256 DUP1 SLOAD PUSH1 0xFF NOT AND SWAP1 SSTORE MLOAD CALLER SWAP3 DUP6 SWAP2 PUSH32 0xF6391F5C32D9C69D2A47EA670B442974B53935D1EDC7FD64EB21E047A839171B SWAP2 SWAP1 LOG4 POP POP JUMP JUMPDEST PUSH1 0x1 PUSH1 0x1 PUSH1 0xA0 SHL SUB DUP3 AND PUSH2 0x14BA JUMPI PUSH1 0x40 MLOAD PUSH3 0x461BCD PUSH1 0xE5 SHL DUP2 MSTORE PUSH1 0x20 PUSH1 0x4 DUP3 ADD MSTORE PUSH1 0x21 PUSH1 0x24 DUP3 ADD MSTORE PUSH32 0x45524332303A206275726E2066726F6D20746865207A65726F20616464726573 PUSH1 0x44 DUP3 ADD MSTORE PUSH1 0x73 PUSH1 0xF8 SHL PUSH1 0x64 DUP3 ADD MSTORE PUSH1 0x84 ADD PUSH2 0x5F9 JUMP JUMPDEST PUSH2 0x14C6 DUP3 PUSH1 0x0 DUP4 PUSH2 0x17DC JUMP JUMPDEST PUSH1 0x1 PUSH1 0x1 PUSH1 0xA0 SHL SUB DUP3 AND PUSH1 0x0 SWAP1 DUP2 MSTORE PUSH1 0x20 DUP2 SWAP1 MSTORE PUSH1 0x40 SWAP1 KECCAK256 SLOAD DUP2 DUP2 LT ISZERO PUSH2 0x153A JUMPI PUSH1 0x40 MLOAD PUSH3 0x461BCD PUSH1 0xE5 SHL DUP2 MSTORE PUSH1 0x20 PUSH1 0x4 DUP3 ADD MSTORE PUSH1 0x22 PUSH1 0x24 DUP3 ADD MSTORE PUSH32 0x45524332303A206275726E20616D6F756E7420657863656564732062616C616E PUSH1 0x44 DUP3 ADD MSTORE PUSH2 0x6365 PUSH1 0xF0 SHL PUSH1 0x64 DUP3 ADD MSTORE PUSH1 0x84 ADD PUSH2 0x5F9 JUMP JUMPDEST PUSH1 0x1 PUSH1 0x1 PUSH1 0xA0 SHL SUB DUP4 AND PUSH1 0x0 DUP2 DUP2 MSTORE PUSH1 0x20 DUP2 DUP2 MSTORE PUSH1 0x40 DUP1 DUP4 KECCAK256 DUP7 DUP7 SUB SWAP1 SSTORE PUSH1 0x2 DUP1 SLOAD DUP8 SWAP1 SUB SWAP1 SSTORE MLOAD DUP6 DUP2 MSTORE SWAP2 SWAP3 SWAP2 PUSH32 0xDDF252AD1BE2C89B69C2B068FC378DAA952BA7F163C4A11628F55A4DF523B3EF SWAP2 ADD PUSH1 0x40 MLOAD DUP1 SWAP2 SUB SWAP1 LOG3 PUSH2 0x7BE DUP4 PUSH1 0x0 DUP5 PUSH2 0x1893 JUMP JUMPDEST PUSH1 0x0 PUSH2 0x15AA DUP6 PUSH2 0x93B JUMP JUMPDEST DUP5 GT ISZERO PUSH2 0x160D JUMPI PUSH1 0x40 MLOAD PUSH3 0x461BCD PUSH1 0xE5 SHL DUP2 MSTORE PUSH1 0x20 PUSH1 0x4 DUP3 ADD MSTORE PUSH1 0x2B PUSH1 0x24 DUP3 ADD MSTORE PUSH32 0x4552433230466C6173684D696E743A20616D6F756E742065786365656473206D PUSH1 0x44 DUP3 ADD MSTORE PUSH11 0x30BC233630B9B42637B0B7 PUSH1 0xA9 SHL PUSH1 0x64 DUP3 ADD MSTORE PUSH1 0x84 ADD PUSH2 0x5F9 JUMP JUMPDEST PUSH1 0x0 PUSH2 0x1619 DUP7 DUP7 PUSH2 0xC58 JUMP JUMPDEST SWAP1 POP PUSH2 0x1625 DUP8 DUP7 PUSH2 0xE24 JUMP JUMPDEST PUSH1 0x40 MLOAD PUSH4 0x23E30C8B PUSH1 0xE0 SHL DUP2 MSTORE PUSH32 0x439148F0BBC682CA079E46D6E2C2F0C1E3B820F1A291B069D8882ABF8CF18DD9 SWAP1 PUSH1 0x1 PUSH1 0x1 PUSH1 0xA0 SHL SUB DUP10 AND SWAP1 PUSH4 0x23E30C8B SWAP1 PUSH2 0x167D SWAP1 CALLER SWAP1 DUP12 SWAP1 DUP12 SWAP1 DUP9 SWAP1 DUP13 SWAP1 DUP13 SWAP1 PUSH1 0x4 ADD PUSH2 0x2161 JUMP JUMPDEST PUSH1 0x20 PUSH1 0x40 MLOAD DUP1 DUP4 SUB DUP2 PUSH1 0x0 DUP8 GAS CALL ISZERO DUP1 ISZERO PUSH2 0x169C JUMPI RETURNDATASIZE PUSH1 0x0 DUP1 RETURNDATACOPY RETURNDATASIZE PUSH1 0x0 REVERT JUMPDEST POP POP POP POP PUSH1 0x40 MLOAD RETURNDATASIZE PUSH1 0x1F NOT PUSH1 0x1F DUP3 ADD AND DUP3 ADD DUP1 PUSH1 0x40 MSTORE POP DUP2 ADD SWAP1 PUSH2 0x16C0 SWAP2 SWAP1 PUSH2 0x21BD JUMP JUMPDEST EQ PUSH2 0x1719 JUMPI PUSH1 0x40 MLOAD PUSH3 0x461BCD PUSH1 0xE5 SHL DUP2 MSTORE PUSH1 0x20 PUSH1 0x4 DUP3 ADD MSTORE PUSH1 0x24 DUP1 DUP3 ADD MSTORE PUSH32 0x4552433230466C6173684D696E743A20696E76616C69642072657475726E2076 PUSH1 0x44 DUP3 ADD MSTORE PUSH4 0x616C7565 PUSH1 0xE0 SHL PUSH1 0x64 DUP3 ADD MSTORE PUSH1 0x84 ADD PUSH2 0x5F9 JUMP JUMPDEST PUSH1 0x0 PUSH2 0x172F DUP9 ADDRESS PUSH2 0x172A DUP6 DUP11 PUSH2 0x213B JUMP JUMPDEST PUSH2 0x113E JUMP JUMPDEST DUP2 ISZERO DUP1 PUSH2 0x1743 JUMPI POP PUSH1 0x1 PUSH1 0x1 PUSH1 0xA0 SHL SUB DUP2 AND ISZERO JUMPDEST ISZERO PUSH2 0x1760 JUMPI PUSH2 0x175B DUP9 PUSH2 0x1756 DUP5 DUP10 PUSH2 0x213B JUMP JUMPDEST PUSH2 0x145A JUMP JUMPDEST PUSH2 0x1775 JUMP JUMPDEST PUSH2 0x176A DUP9 DUP8 PUSH2 0x145A JUMP JUMPDEST PUSH2 0x1775 DUP9 DUP3 DUP5 PUSH2 0x11B8 JUMP JUMPDEST POP PUSH1 0x1 SWAP8 SWAP7 POP POP POP POP POP POP POP JUMP JUMPDEST PUSH2 0x178D DUP3 DUP3 PUSH2 0xB70 JUMP JUMPDEST PUSH2 0x690 JUMPI PUSH2 0x179A DUP2 PUSH2 0x190A JUMP JUMPDEST PUSH2 0x17A5 DUP4 PUSH1 0x20 PUSH2 0x191C JUMP JUMPDEST PUSH1 0x40 MLOAD PUSH1 0x20 ADD PUSH2 0x17B6 SWAP3 SWAP2 SWAP1 PUSH2 0x21D6 JUMP JUMPDEST PUSH1 0x40 DUP1 MLOAD PUSH1 0x1F NOT DUP2 DUP5 SUB ADD DUP2 MSTORE SWAP1 DUP3 SWAP1 MSTORE PUSH3 0x461BCD PUSH1 0xE5 SHL DUP3 MSTORE PUSH2 0x5F9 SWAP2 PUSH1 0x4 ADD PUSH2 0x1F35 JUMP JUMPDEST PUSH1 0x1 PUSH1 0x1 PUSH1 0xA0 SHL SUB DUP4 AND PUSH2 0x17EF JUMPI POP POP POP JUMP JUMPDEST PUSH10 0xD3C21BCECCEDA1000000 DUP2 GT ISZERO PUSH2 0x1849 JUMPI PUSH1 0x40 MLOAD PUSH3 0x461BCD PUSH1 0xE5 SHL DUP2 MSTORE PUSH1 0x20 PUSH1 0x4 DUP3 ADD MSTORE PUSH1 0x1C PUSH1 0x24 DUP3 ADD MSTORE PUSH32 0x4D41585F5452414E534645525F5045525F5452414E53414354494F4E00000000 PUSH1 0x44 DUP3 ADD MSTORE PUSH1 0x64 ADD PUSH2 0x5F9 JUMP JUMPDEST PUSH1 0x1 PUSH1 0x1 PUSH1 0xA0 SHL SUB DUP4 AND PUSH1 0x0 SWAP1 DUP2 MSTORE PUSH1 0x9 PUSH1 0x20 MSTORE PUSH1 0x40 SWAP1 KECCAK256 SLOAD DUP2 GT ISZERO PUSH2 0x7BE JUMPI PUSH1 0xC SLOAD PUSH1 0x1 PUSH1 0x1 PUSH1 0xA0 SHL SUB SWAP1 DUP2 AND SWAP1 DUP4 AND SUB PUSH2 0x1889 JUMPI PUSH2 0x7BE DUP4 DUP3 PUSH2 0x1AB8 JUMP JUMPDEST PUSH2 0x7BE DUP4 DUP3 PUSH2 0x1D15 JUMP JUMPDEST PUSH1 0x1 PUSH1 0x1 PUSH1 0xA0 SHL SUB DUP4 AND PUSH2 0x18A6 JUMPI POP POP POP JUMP JUMPDEST PUSH1 0x1 PUSH1 0x1 PUSH1 0xA0 SHL SUB DUP4 AND PUSH1 0x0 SWAP1 DUP2 MSTORE PUSH1 0x9 PUSH1 0x20 MSTORE PUSH1 0x40 DUP2 KECCAK256 DUP1 SLOAD DUP4 SWAP3 SWAP1 PUSH2 0x18CE SWAP1 DUP5 SWAP1 PUSH2 0x214E JUMP JUMPDEST SWAP1 SWAP2 SSTORE POP POP PUSH1 0x1 PUSH1 0x1 PUSH1 0xA0 SHL SUB DUP3 AND PUSH1 0x0 SWAP1 DUP2 MSTORE PUSH1 0x9 PUSH1 0x20 MSTORE PUSH1 0x40 DUP2 KECCAK256 DUP1 SLOAD DUP4 SWAP3 SWAP1 PUSH2 0x18FB SWAP1 DUP5 SWAP1 PUSH2 0x213B JUMP JUMPDEST SWAP1 SWAP2 SSTORE POP PUSH2 0x7BE SWAP1 POP DUP4 DUP4 DUP4 DUP4 JUMP JUMPDEST PUSH1 0x60 PUSH2 0x6C5 PUSH1 0x1 PUSH1 0x1 PUSH1 0xA0 SHL SUB DUP4 AND PUSH1 0x14 JUMPDEST PUSH1 0x60 PUSH1 0x0 PUSH2 0x192B DUP4 PUSH1 0x2 PUSH2 0x224B JUMP JUMPDEST PUSH2 0x1936 SWAP1 PUSH1 0x2 PUSH2 0x213B JUMP JUMPDEST PUSH8 0xFFFFFFFFFFFFFFFF DUP2 GT ISZERO PUSH2 0x194E JUMPI PUSH2 0x194E PUSH2 0x2262 JUMP JUMPDEST PUSH1 0x40 MLOAD SWAP1 DUP1 DUP3 MSTORE DUP1 PUSH1 0x1F ADD PUSH1 0x1F NOT AND PUSH1 0x20 ADD DUP3 ADD PUSH1 0x40 MSTORE DUP1 ISZERO PUSH2 0x1978 JUMPI PUSH1 0x20 DUP3 ADD DUP2 DUP1 CALLDATASIZE DUP4 CALLDATACOPY ADD SWAP1 POP JUMPDEST POP SWAP1 POP PUSH1 0x3 PUSH1 0xFC SHL DUP2 PUSH1 0x0 DUP2 MLOAD DUP2 LT PUSH2 0x1993 JUMPI PUSH2 0x1993 PUSH2 0x2278 JUMP JUMPDEST PUSH1 0x20 ADD ADD SWAP1 PUSH1 0x1 PUSH1 0x1 PUSH1 0xF8 SHL SUB NOT AND SWAP1 DUP2 PUSH1 0x0 BYTE SWAP1 MSTORE8 POP PUSH1 0xF PUSH1 0xFB SHL DUP2 PUSH1 0x1 DUP2 MLOAD DUP2 LT PUSH2 0x19C2 JUMPI PUSH2 0x19C2 PUSH2 0x2278 JUMP JUMPDEST PUSH1 0x20 ADD ADD SWAP1 PUSH1 0x1 PUSH1 0x1 PUSH1 0xF8 SHL SUB NOT AND SWAP1 DUP2 PUSH1 0x0 BYTE SWAP1 MSTORE8 POP PUSH1 0x0 PUSH2 0x19E6 DUP5 PUSH1 0x2 PUSH2 0x224B JUMP JUMPDEST PUSH2 0x19F1 SWAP1 PUSH1 0x1 PUSH2 0x213B JUMP JUMPDEST SWAP1 POP JUMPDEST PUSH1 0x1 DUP2 GT ISZERO PUSH2 0x1A69 JUMPI PUSH16 0x181899199A1A9B1B9C1CB0B131B232B3 PUSH1 0x81 SHL DUP6 PUSH1 0xF AND PUSH1 0x10 DUP2 LT PUSH2 0x1A25 JUMPI PUSH2 0x1A25 PUSH2 0x2278 JUMP JUMPDEST BYTE PUSH1 0xF8 SHL DUP3 DUP3 DUP2 MLOAD DUP2 LT PUSH2 0x1A3B JUMPI PUSH2 0x1A3B PUSH2 0x2278 JUMP JUMPDEST PUSH1 0x20 ADD ADD SWAP1 PUSH1 0x1 PUSH1 0x1 PUSH1 0xF8 SHL SUB NOT AND SWAP1 DUP2 PUSH1 0x0 BYTE SWAP1 MSTORE8 POP PUSH1 0x4 SWAP5 SWAP1 SWAP5 SHR SWAP4 PUSH2 0x1A62 DUP2 PUSH2 0x228E JUMP JUMPDEST SWAP1 POP PUSH2 0x19F4 JUMP JUMPDEST POP DUP4 ISZERO PUSH2 0xCB5 JUMPI PUSH1 0x40 MLOAD PUSH3 0x461BCD PUSH1 0xE5 SHL DUP2 MSTORE PUSH1 0x20 PUSH1 0x4 DUP3 ADD DUP2 SWAP1 MSTORE PUSH1 0x24 DUP3 ADD MSTORE PUSH32 0x537472696E67733A20686578206C656E67746820696E73756666696369656E74 PUSH1 0x44 DUP3 ADD MSTORE PUSH1 0x64 ADD PUSH2 0x5F9 JUMP JUMPDEST PUSH2 0x1AC2 DUP3 DUP3 PUSH2 0x1E4F JUMP JUMPDEST PUSH1 0x1 PUSH1 0x1 PUSH1 0xA0 SHL SUB DUP3 AND PUSH1 0x0 SWAP1 DUP2 MSTORE PUSH1 0x9 PUSH1 0x20 SWAP1 DUP2 MSTORE PUSH1 0x40 DUP1 DUP4 KECCAK256 SLOAD SWAP2 DUP4 SWAP1 MSTORE SWAP1 SWAP2 KECCAK256 SLOAD PUSH2 0x1AF0 SWAP2 SWAP1 PUSH2 0x214E JUMP JUMPDEST DUP2 GT ISZERO PUSH2 0x1B3F JUMPI PUSH1 0x40 MLOAD PUSH3 0x461BCD PUSH1 0xE5 SHL DUP2 MSTORE PUSH1 0x20 PUSH1 0x4 DUP3 ADD MSTORE PUSH1 0x18 PUSH1 0x24 DUP3 ADD MSTORE PUSH32 0x4E6F7420656E6F756768206C6F636B656420746F6B656E730000000000000000 PUSH1 0x44 DUP3 ADD MSTORE PUSH1 0x64 ADD PUSH2 0x5F9 JUMP JUMPDEST PUSH1 0x1 PUSH1 0x1 PUSH1 0xA0 SHL SUB DUP3 AND PUSH1 0x0 SWAP1 DUP2 MSTORE PUSH1 0x7 PUSH1 0x20 MSTORE PUSH1 0x40 DUP2 KECCAK256 DUP1 SLOAD JUMPDEST DUP1 ISZERO PUSH2 0x1CC5 JUMPI DUP4 DUP3 PUSH2 0x1B6D PUSH1 0x1 DUP5 PUSH2 0x214E JUMP JUMPDEST DUP2 SLOAD DUP2 LT PUSH2 0x1B7D JUMPI PUSH2 0x1B7D PUSH2 0x2278 JUMP JUMPDEST PUSH1 0x0 SWAP2 DUP3 MSTORE PUSH1 0x20 SWAP1 SWAP2 KECCAK256 ADD SLOAD PUSH1 0x1 PUSH1 0x1 PUSH1 0xC0 SHL SUB AND GT PUSH2 0x1C3E JUMPI DUP2 PUSH2 0x1BA3 PUSH1 0x1 DUP4 PUSH2 0x214E JUMP JUMPDEST DUP2 SLOAD DUP2 LT PUSH2 0x1BB3 JUMPI PUSH2 0x1BB3 PUSH2 0x2278 JUMP JUMPDEST PUSH1 0x0 SWAP2 DUP3 MSTORE PUSH1 0x20 SWAP1 SWAP2 KECCAK256 ADD SLOAD PUSH2 0x1BD2 SWAP1 PUSH1 0x1 PUSH1 0x1 PUSH1 0xC0 SHL SUB AND DUP5 PUSH2 0x213B JUMP JUMPDEST SWAP3 POP DUP2 PUSH2 0x1BE0 PUSH1 0x1 DUP4 PUSH2 0x214E JUMP JUMPDEST DUP2 SLOAD DUP2 LT PUSH2 0x1BF0 JUMPI PUSH2 0x1BF0 PUSH2 0x2278 JUMP JUMPDEST PUSH1 0x0 SWAP2 DUP3 MSTORE PUSH1 0x20 SWAP1 SWAP2 KECCAK256 ADD SLOAD PUSH2 0x1C0F SWAP1 PUSH1 0x1 PUSH1 0x1 PUSH1 0xC0 SHL SUB AND DUP6 PUSH2 0x214E JUMP JUMPDEST SWAP4 POP DUP2 DUP1 SLOAD DUP1 PUSH2 0x1C21 JUMPI PUSH2 0x1C21 PUSH2 0x22A5 JUMP JUMPDEST PUSH1 0x0 DUP3 DUP2 MSTORE PUSH1 0x20 DUP2 KECCAK256 DUP3 ADD PUSH1 0x0 NOT SWAP1 DUP2 ADD SWAP2 SWAP1 SWAP2 SSTORE ADD SWAP1 SSTORE PUSH2 0x1CB3 JUMP JUMPDEST PUSH2 0x1C48 DUP5 DUP5 PUSH2 0x213B JUMP JUMPDEST SWAP3 POP DUP4 DUP3 PUSH2 0x1C57 PUSH1 0x1 DUP5 PUSH2 0x214E JUMP JUMPDEST DUP2 SLOAD DUP2 LT PUSH2 0x1C67 JUMPI PUSH2 0x1C67 PUSH2 0x2278 JUMP JUMPDEST PUSH1 0x0 SWAP2 DUP3 MSTORE PUSH1 0x20 DUP3 KECCAK256 ADD DUP1 SLOAD SWAP1 SWAP2 SWAP1 PUSH2 0x1C8A SWAP1 DUP5 SWAP1 PUSH1 0x1 PUSH1 0x1 PUSH1 0xC0 SHL SUB AND PUSH2 0x22BB JUMP JUMPDEST SWAP3 POP PUSH2 0x100 EXP DUP2 SLOAD DUP2 PUSH1 0x1 PUSH1 0x1 PUSH1 0xC0 SHL SUB MUL NOT AND SWAP1 DUP4 PUSH1 0x1 PUSH1 0x1 PUSH1 0xC0 SHL SUB AND MUL OR SWAP1 SSTORE POP PUSH2 0x1CC5 JUMP JUMPDEST DUP1 PUSH2 0x1CBD DUP2 PUSH2 0x228E JUMP JUMPDEST SWAP2 POP POP PUSH2 0x1B5A JUMP JUMPDEST POP DUP3 DUP3 EQ PUSH2 0x11B2 JUMPI PUSH1 0x40 MLOAD PUSH3 0x461BCD PUSH1 0xE5 SHL DUP2 MSTORE PUSH1 0x20 PUSH1 0x4 DUP3 ADD MSTORE PUSH1 0x18 PUSH1 0x24 DUP3 ADD MSTORE PUSH32 0x556E6C6F636B656420616D6F756E74206D69736D617463680000000000000000 PUSH1 0x44 DUP3 ADD MSTORE PUSH1 0x64 ADD PUSH2 0x5F9 JUMP JUMPDEST PUSH2 0x1D1F DUP3 DUP3 PUSH2 0x1E4F JUMP JUMPDEST PUSH1 0x1 PUSH1 0x1 PUSH1 0xA0 SHL SUB DUP3 AND PUSH1 0x0 SWAP1 DUP2 MSTORE PUSH1 0x9 PUSH1 0x20 SWAP1 DUP2 MSTORE PUSH1 0x40 DUP1 DUP4 KECCAK256 SLOAD PUSH1 0x7 SWAP1 SWAP3 MSTORE SWAP1 SWAP2 KECCAK256 DUP1 SLOAD JUMPDEST DUP1 ISZERO PUSH2 0x1E0C JUMPI TIMESTAMP DUP3 PUSH2 0x1D59 PUSH1 0x1 DUP5 PUSH2 0x214E JUMP JUMPDEST DUP2 SLOAD DUP2 LT PUSH2 0x1D69 JUMPI PUSH2 0x1D69 PUSH2 0x2278 JUMP JUMPDEST PUSH1 0x0 SWAP2 DUP3 MSTORE PUSH1 0x20 SWAP1 SWAP2 KECCAK256 ADD SLOAD PUSH1 0x1 PUSH1 0xC0 SHL SWAP1 DIV PUSH8 0xFFFFFFFFFFFFFFFF AND GT PUSH2 0x1DF5 JUMPI DUP2 PUSH2 0x1D97 PUSH1 0x1 DUP4 PUSH2 0x214E JUMP JUMPDEST DUP2 SLOAD DUP2 LT PUSH2 0x1DA7 JUMPI PUSH2 0x1DA7 PUSH2 0x2278 JUMP JUMPDEST PUSH1 0x0 SWAP2 DUP3 MSTORE PUSH1 0x20 SWAP1 SWAP2 KECCAK256 ADD SLOAD PUSH2 0x1DC6 SWAP1 PUSH1 0x1 PUSH1 0x1 PUSH1 0xC0 SHL SUB AND DUP5 PUSH2 0x213B JUMP JUMPDEST SWAP3 POP DUP2 DUP1 SLOAD DUP1 PUSH2 0x1DD8 JUMPI PUSH2 0x1DD8 PUSH2 0x22A5 JUMP JUMPDEST PUSH1 0x0 DUP3 DUP2 MSTORE PUSH1 0x20 DUP2 KECCAK256 DUP3 ADD PUSH1 0x0 NOT SWAP1 DUP2 ADD SWAP2 SWAP1 SWAP2 SSTORE ADD SWAP1 SSTORE PUSH2 0x1DFA JUMP JUMPDEST PUSH2 0x1E0C JUMP JUMPDEST DUP1 PUSH2 0x1E04 DUP2 PUSH2 0x228E JUMP JUMPDEST SWAP2 POP POP PUSH2 0x1D46 JUMP JUMPDEST POP DUP2 DUP4 GT ISZERO PUSH2 0x1E2E JUMPI PUSH1 0x40 MLOAD PUSH4 0x13424E8D PUSH1 0xE3 SHL DUP2 MSTORE PUSH1 0x4 ADD PUSH1 0x40 MLOAD DUP1 SWAP2 SUB SWAP1 REVERT JUMPDEST POP PUSH1 0x1 PUSH1 0x1 PUSH1 0xA0 SHL SUB SWAP1 SWAP3 AND PUSH1 0x0 SWAP1 DUP2 MSTORE PUSH1 0x9 PUSH1 0x20 MSTORE PUSH1 0x40 SWAP1 KECCAK256 SWAP2 SWAP1 SWAP2 SSTORE POP JUMP JUMPDEST PUSH2 0x1E58 DUP2 PUSH2 0x1E94 JUMP JUMPDEST PUSH1 0x1 PUSH1 0x1 PUSH1 0xA0 SHL SUB DUP3 AND PUSH1 0x0 SWAP1 DUP2 MSTORE PUSH1 0x20 DUP2 SWAP1 MSTORE PUSH1 0x40 SWAP1 KECCAK256 SLOAD DUP2 GT ISZERO PUSH2 0x690 JUMPI PUSH1 0x40 MLOAD PUSH4 0x92665351 PUSH1 0xE0 SHL DUP2 MSTORE PUSH1 0x4 DUP2 ADD DUP3 SWAP1 MSTORE PUSH1 0x24 ADD PUSH2 0x5F9 JUMP JUMPDEST DUP1 PUSH1 0x0 SUB PUSH2 0x869 JUMPI PUSH1 0x40 MLOAD PUSH4 0x273E1503 PUSH1 0xE2 SHL DUP2 MSTORE PUSH1 0x4 ADD PUSH1 0x40 MLOAD DUP1 SWAP2 SUB SWAP1 REVERT JUMPDEST PUSH1 0x1 PUSH1 0x1 PUSH1 0xA0 SHL SUB DUP2 AND DUP2 EQ PUSH2 0x869 JUMPI PUSH1 0x0 DUP1 REVERT JUMPDEST PUSH1 0x0 PUSH1 0x20 DUP3 DUP5 SUB SLT ISZERO PUSH2 0x1EDC JUMPI PUSH1 0x0 DUP1 REVERT JUMPDEST DUP2 CALLDATALOAD PUSH2 0xCB5 DUP2 PUSH2 0x1EB5 JUMP JUMPDEST PUSH1 0x0 PUSH1 0x20 DUP3 DUP5 SUB SLT ISZERO PUSH2 0x1EF9 JUMPI PUSH1 0x0 DUP1 REVERT JUMPDEST DUP2 CALLDATALOAD PUSH1 0x1 PUSH1 0x1 PUSH1 0xE0 SHL SUB NOT DUP2 AND DUP2 EQ PUSH2 0xCB5 JUMPI PUSH1 0x0 DUP1 REVERT JUMPDEST PUSH1 0x0 JUMPDEST DUP4 DUP2 LT ISZERO PUSH2 0x1F2C JUMPI DUP2 DUP2 ADD MLOAD DUP4 DUP3 ADD MSTORE PUSH1 0x20 ADD PUSH2 0x1F14 JUMP JUMPDEST POP POP PUSH1 0x0 SWAP2 ADD MSTORE JUMP JUMPDEST PUSH1 0x20 DUP2 MSTORE PUSH1 0x0 DUP3 MLOAD DUP1 PUSH1 0x20 DUP5 ADD MSTORE PUSH2 0x1F54 DUP2 PUSH1 0x40 DUP6 ADD PUSH1 0x20 DUP8 ADD PUSH2 0x1F11 JUMP JUMPDEST PUSH1 0x1F ADD PUSH1 0x1F NOT AND SWAP2 SWAP1 SWAP2 ADD PUSH1 0x40 ADD SWAP3 SWAP2 POP POP JUMP JUMPDEST PUSH1 0x0 DUP1 PUSH1 0x40 DUP4 DUP6 SUB SLT ISZERO PUSH2 0x1F7B JUMPI PUSH1 0x0 DUP1 REVERT JUMPDEST DUP3 CALLDATALOAD PUSH2 0x1F86 DUP2 PUSH2 0x1EB5 JUMP JUMPDEST SWAP5 PUSH1 0x20 SWAP4 SWAP1 SWAP4 ADD CALLDATALOAD SWAP4 POP POP POP JUMP JUMPDEST PUSH1 0x0 DUP1 PUSH1 0x0 PUSH1 0x60 DUP5 DUP7 SUB SLT ISZERO PUSH2 0x1FA9 JUMPI PUSH1 0x0 DUP1 REVERT JUMPDEST DUP4 CALLDATALOAD PUSH2 0x1FB4 DUP2 PUSH2 0x1EB5 JUMP JUMPDEST SWAP3 POP PUSH1 0x20 DUP5 ADD CALLDATALOAD PUSH2 0x1FC4 DUP2 PUSH2 0x1EB5 JUMP JUMPDEST SWAP3 SWAP6 SWAP3 SWAP5 POP POP POP PUSH1 0x40 SWAP2 SWAP1 SWAP2 ADD CALLDATALOAD SWAP1 JUMP JUMPDEST PUSH1 0x0 PUSH1 0x20 DUP3 DUP5 SUB SLT ISZERO PUSH2 0x1FE7 JUMPI PUSH1 0x0 DUP1 REVERT JUMPDEST POP CALLDATALOAD SWAP2 SWAP1 POP JUMP JUMPDEST PUSH1 0x0 DUP1 PUSH1 0x40 DUP4 DUP6 SUB SLT ISZERO PUSH2 0x2001 JUMPI PUSH1 0x0 DUP1 REVERT JUMPDEST DUP3 CALLDATALOAD SWAP2 POP PUSH1 0x20 DUP4 ADD CALLDATALOAD PUSH2 0x2013 DUP2 PUSH2 0x1EB5 JUMP JUMPDEST DUP1 SWAP2 POP POP SWAP3 POP SWAP3 SWAP1 POP JUMP JUMPDEST PUSH1 0x0 DUP1 PUSH1 0x0 DUP1 PUSH1 0x0 PUSH1 0x80 DUP7 DUP9 SUB SLT ISZERO PUSH2 0x2036 JUMPI PUSH1 0x0 DUP1 REVERT JUMPDEST DUP6 CALLDATALOAD PUSH2 0x2041 DUP2 PUSH2 0x1EB5 JUMP JUMPDEST SWAP5 POP PUSH1 0x20 DUP7 ADD CALLDATALOAD PUSH2 0x2051 DUP2 PUSH2 0x1EB5 JUMP JUMPDEST SWAP4 POP PUSH1 0x40 DUP7 ADD CALLDATALOAD SWAP3 POP PUSH1 0x60 DUP7 ADD CALLDATALOAD PUSH8 0xFFFFFFFFFFFFFFFF DUP1 DUP3 GT ISZERO PUSH2 0x2075 JUMPI PUSH1 0x0 DUP1 REVERT JUMPDEST DUP2 DUP9 ADD SWAP2 POP DUP9 PUSH1 0x1F DUP4 ADD SLT PUSH2 0x2089 JUMPI PUSH1 0x0 DUP1 REVERT JUMPDEST DUP2 CALLDATALOAD DUP2 DUP2 GT ISZERO PUSH2 0x2098 JUMPI PUSH1 0x0 DUP1 REVERT JUMPDEST DUP10 PUSH1 0x20 DUP3 DUP6 ADD ADD GT ISZERO PUSH2 0x20AA JUMPI PUSH1 0x0 DUP1 REVERT JUMPDEST SWAP7 SWAP10 SWAP6 SWAP9 POP SWAP4 SWAP7 POP PUSH1 0x20 ADD SWAP5 SWAP4 SWAP3 POP POP POP JUMP JUMPDEST PUSH1 0x0 DUP1 PUSH1 0x40 DUP4 DUP6 SUB SLT ISZERO PUSH2 0x20D0 JUMPI PUSH1 0x0 DUP1 REVERT JUMPDEST DUP3 CALLDATALOAD PUSH2 0x20DB DUP2 PUSH2 0x1EB5 JUMP JUMPDEST SWAP2 POP PUSH1 0x20 DUP4 ADD CALLDATALOAD PUSH2 0x2013 DUP2 PUSH2 0x1EB5 JUMP JUMPDEST PUSH1 0x1 DUP2 DUP2 SHR SWAP1 DUP3 AND DUP1 PUSH2 0x20FF JUMPI PUSH1 0x7F DUP3 AND SWAP2 POP JUMPDEST PUSH1 0x20 DUP3 LT DUP2 SUB PUSH2 0x211F JUMPI PUSH4 0x4E487B71 PUSH1 0xE0 SHL PUSH1 0x0 MSTORE PUSH1 0x22 PUSH1 0x4 MSTORE PUSH1 0x24 PUSH1 0x0 REVERT JUMPDEST POP SWAP2 SWAP1 POP JUMP JUMPDEST PUSH4 0x4E487B71 PUSH1 0xE0 SHL PUSH1 0x0 MSTORE PUSH1 0x11 PUSH1 0x4 MSTORE PUSH1 0x24 PUSH1 0x0 REVERT JUMPDEST DUP1 DUP3 ADD DUP1 DUP3 GT ISZERO PUSH2 0x6C5 JUMPI PUSH2 0x6C5 PUSH2 0x2125 JUMP JUMPDEST DUP2 DUP2 SUB DUP2 DUP2 GT ISZERO PUSH2 0x6C5 JUMPI PUSH2 0x6C5 PUSH2 0x2125 JUMP JUMPDEST PUSH1 0x1 PUSH1 0x1 PUSH1 0xA0 SHL SUB DUP8 DUP2 AND DUP3 MSTORE DUP7 AND PUSH1 0x20 DUP3 ADD MSTORE PUSH1 0x40 DUP2 ADD DUP6 SWAP1 MSTORE PUSH1 0x60 DUP2 ADD DUP5 SWAP1 MSTORE PUSH1 0xA0 PUSH1 0x80 DUP3 ADD DUP2 SWAP1 MSTORE DUP2 ADD DUP3 SWAP1 MSTORE PUSH1 0x0 DUP3 DUP5 PUSH1 0xC0 DUP5 ADD CALLDATACOPY PUSH1 0x0 PUSH1 0xC0 DUP5 DUP5 ADD ADD MSTORE PUSH1 0xC0 PUSH1 0x1F NOT PUSH1 0x1F DUP6 ADD AND DUP4 ADD ADD SWAP1 POP SWAP8 SWAP7 POP POP POP POP POP POP POP JUMP JUMPDEST PUSH1 0x0 PUSH1 0x20 DUP3 DUP5 SUB SLT ISZERO PUSH2 0x21CF JUMPI PUSH1 0x0 DUP1 REVERT JUMPDEST POP MLOAD SWAP2 SWAP1 POP JUMP JUMPDEST PUSH32 0x416363657373436F6E74726F6C3A206163636F756E7420000000000000000000 DUP2 MSTORE PUSH1 0x0 DUP4 MLOAD PUSH2 0x220E DUP2 PUSH1 0x17 DUP6 ADD PUSH1 0x20 DUP9 ADD PUSH2 0x1F11 JUMP JUMPDEST PUSH17 0x1034B99036B4B9B9B4B733903937B6329 PUSH1 0x7D SHL PUSH1 0x17 SWAP2 DUP5 ADD SWAP2 DUP3 ADD MSTORE DUP4 MLOAD PUSH2 0x223F DUP2 PUSH1 0x28 DUP5 ADD PUSH1 0x20 DUP9 ADD PUSH2 0x1F11 JUMP JUMPDEST ADD PUSH1 0x28 ADD SWAP5 SWAP4 POP POP POP POP JUMP JUMPDEST DUP1 DUP3 MUL DUP2 ISZERO DUP3 DUP3 DIV DUP5 EQ OR PUSH2 0x6C5 JUMPI PUSH2 0x6C5 PUSH2 0x2125 JUMP JUMPDEST PUSH4 0x4E487B71 PUSH1 0xE0 SHL PUSH1 0x0 MSTORE PUSH1 0x41 PUSH1 0x4 MSTORE PUSH1 0x24 PUSH1 0x0 REVERT JUMPDEST PUSH4 0x4E487B71 PUSH1 0xE0 SHL PUSH1 0x0 MSTORE PUSH1 0x32 PUSH1 0x4 MSTORE PUSH1 0x24 PUSH1 0x0 REVERT JUMPDEST PUSH1 0x0 DUP2 PUSH2 0x229D JUMPI PUSH2 0x229D PUSH2 0x2125 JUMP JUMPDEST POP PUSH1 0x0 NOT ADD SWAP1 JUMP JUMPDEST PUSH4 0x4E487B71 PUSH1 0xE0 SHL PUSH1 0x0 MSTORE PUSH1 0x31 PUSH1 0x4 MSTORE PUSH1 0x24 PUSH1 0x0 REVERT JUMPDEST PUSH1 0x1 PUSH1 0x1 PUSH1 0xC0 SHL SUB DUP3 DUP2 AND DUP3 DUP3 AND SUB SWAP1 DUP1 DUP3 GT ISZERO PUSH2 0x22DB JUMPI PUSH2 0x22DB PUSH2 0x2125 JUMP JUMPDEST POP SWAP3 SWAP2 POP POP JUMP INVALID LOG2 PUSH5 0x6970667358 0x22 SLT KECCAK256 PUSH20 0x889B10BF682162D1A1BB3B57EA0BAFBDDBA8219A PUSH12 0x7345966A011EA56CB5196473 PUSH16 0x6C634300081200330000000000000000 "},"methodIdentifiers":{"DAILY_REWARDS()":"4b9afa80","DEFAULT_ADMIN_ROLE()":"a217fddf","LOCK_DURATION()":"485d3834","MAX_TRANSFER_PER_TRANSACTION()":"de47a2cc","SIGNUP_REWARDS()":"4975448e","allowance(address,address)":"dd62ed3e","approve(address,uint256)":"095ea7b3","balanceOf(address)":"70a08231","burn(uint256)":"42966c68","burnFrom(address,uint256)":"79cc6790","changeLubAuctionAddress(address)":"f457239a","dailyBonus(address)":"6b5b0cc1","decimals()":"313ce567","decreaseAllowance(address,uint256)":"a457c2d7","flashFee(address,uint256)":"d9d98ce4","flashLoan(address,address,uint256,bytes)":"5cffe9de","getRoleAdmin(bytes32)":"248a9ca3","grantRole(bytes32,address)":"2f2ff15d","hasRole(bytes32,address)":"91d14854","increaseAllowance(address,uint256)":"39509351","lastClaimedTime(address)":"f3f91fa0","lockedVotingTokens(address)":"b95d47d6","lubAuctionAddress()":"b0a06bc2","maxFlashLoan(address)":"613255ab","mintLocked(address,uint256)":"5143e246","mintUnlocked(address,uint256)":"7477f36a","name()":"06fdde03","renounceRole(bytes32,address)":"36568abe","revokeRole(bytes32,address)":"d547741f","signupBonus(address)":"00168ce7","signupBonusClaimed(address)":"83ec4700","supportsInterface(bytes4)":"01ffc9a7","symbol()":"95d89b41","totalSupply()":"18160ddd","transfer(address,uint256)":"a9059cbb","transferFrom(address,address,uint256)":"23b872dd","unlockedBalanceOf(address)":"84955c88"}}}}}