{
  "_format": "hh-sol-artifact-1",
  "contractName": "FANATICO8",
  "sourceName": "contracts/FANATICO8.sol",
  "abi": [
    {
      "inputs": [
        {
          "internalType": "string",
          "name": "_name",
          "type": "string"
        },
        {
          "internalType": "string",
          "name": "_symbol",
          "type": "string"
        }
      ],
      "stateMutability": "nonpayable",
      "type": "constructor"
    },
    {
      "inputs": [
        {
          "internalType": "uint256",
          "name": "_amount",
          "type": "uint256"
        }
      ],
      "name": "InsufficientBalance",
      "type": "error"
    },
    {
      "inputs": [],
      "name": "InsufficientUnlocked",
      "type": "error"
    },
    {
      "inputs": [],
      "name": "ZeroValueNotAllowed",
      "type": "error"
    },
    {
      "anonymous": false,
      "inputs": [
        {
          "indexed": true,
          "internalType": "address",
          "name": "owner",
          "type": "address"
        },
        {
          "indexed": true,
          "internalType": "address",
          "name": "spender",
          "type": "address"
        },
        {
          "indexed": false,
          "internalType": "uint256",
          "name": "value",
          "type": "uint256"
        }
      ],
      "name": "Approval",
      "type": "event"
    },
    {
      "anonymous": false,
      "inputs": [
        {
          "indexed": true,
          "internalType": "address",
          "name": "_owner",
          "type": "address"
        },
        {
          "indexed": true,
          "internalType": "uint256",
          "name": "_amount",
          "type": "uint256"
        }
      ],
      "name": "DailyRewardsClaimed",
      "type": "event"
    },
    {
      "anonymous": false,
      "inputs": [
        {
          "indexed": true,
          "internalType": "address",
          "name": "_oldAddress",
          "type": "address"
        },
        {
          "indexed": true,
          "internalType": "address",
          "name": "_newAddress",
          "type": "address"
        }
      ],
      "name": "LubAuctionAddressChanged",
      "type": "event"
    },
    {
      "anonymous": false,
      "inputs": [
        {
          "indexed": true,
          "internalType": "bytes32",
          "name": "role",
          "type": "bytes32"
        },
        {
          "indexed": true,
          "internalType": "bytes32",
          "name": "previousAdminRole",
          "type": "bytes32"
        },
        {
          "indexed": true,
          "internalType": "bytes32",
          "name": "newAdminRole",
          "type": "bytes32"
        }
      ],
      "name": "RoleAdminChanged",
      "type": "event"
    },
    {
      "anonymous": false,
      "inputs": [
        {
          "indexed": true,
          "internalType": "bytes32",
          "name": "role",
          "type": "bytes32"
        },
        {
          "indexed": true,
          "internalType": "address",
          "name": "account",
          "type": "address"
        },
        {
          "indexed": true,
          "internalType": "address",
          "name": "sender",
          "type": "address"
        }
      ],
      "name": "RoleGranted",
      "type": "event"
    },
    {
      "anonymous": false,
      "inputs": [
        {
          "indexed": true,
          "internalType": "bytes32",
          "name": "role",
          "type": "bytes32"
        },
        {
          "indexed": true,
          "internalType": "address",
          "name": "account",
          "type": "address"
        },
        {
          "indexed": true,
          "internalType": "address",
          "name": "sender",
          "type": "address"
        }
      ],
      "name": "RoleRevoked",
      "type": "event"
    },
    {
      "anonymous": false,
      "inputs": [
        {
          "indexed": true,
          "internalType": "address",
          "name": "_owner",
          "type": "address"
        },
        {
          "indexed": true,
          "internalType": "uint256",
          "name": "_amount",
          "type": "uint256"
        }
      ],
      "name": "SignupBonusClaimed",
      "type": "event"
    },
    {
      "anonymous": false,
      "inputs": [
        {
          "indexed": true,
          "internalType": "address",
          "name": "_owner",
          "type": "address"
        },
        {
          "indexed": true,
          "internalType": "uint256",
          "name": "_amount",
          "type": "uint256"
        },
        {
          "indexed": true,
          "internalType": "uint256",
          "name": "_lockedUntil",
          "type": "uint256"
        }
      ],
      "name": "TokensLocked",
      "type": "event"
    },
    {
      "anonymous": false,
      "inputs": [
        {
          "indexed": true,
          "internalType": "address",
          "name": "_owner",
          "type": "address"
        },
        {
          "indexed": true,
          "internalType": "uint256",
          "name": "_amount",
          "type": "uint256"
        }
      ],
      "name": "TokensUnlocked",
      "type": "event"
    },
    {
      "anonymous": false,
      "inputs": [
        {
          "indexed": true,
          "internalType": "address",
          "name": "from",
          "type": "address"
        },
        {
          "indexed": true,
          "internalType": "address",
          "name": "to",
          "type": "address"
        },
        {
          "indexed": false,
          "internalType": "uint256",
          "name": "value",
          "type": "uint256"
        }
      ],
      "name": "Transfer",
      "type": "event"
    },
    {
      "inputs": [],
      "name": "DAILY_REWARDS",
      "outputs": [
        {
          "internalType": "uint256",
          "name": "",
          "type": "uint256"
        }
      ],
      "stateMutability": "view",
      "type": "function"
    },
    {
      "inputs": [],
      "name": "DEFAULT_ADMIN_ROLE",
      "outputs": [
        {
          "internalType": "bytes32",
          "name": "",
          "type": "bytes32"
        }
      ],
      "stateMutability": "view",
      "type": "function"
    },
    {
      "inputs": [],
      "name": "LOCK_DURATION",
      "outputs": [
        {
          "internalType": "uint64",
          "name": "",
          "type": "uint64"
        }
      ],
      "stateMutability": "view",
      "type": "function"
    },
    {
      "inputs": [],
      "name": "MAX_TRANSFER_PER_TRANSACTION",
      "outputs": [
        {
          "internalType": "uint256",
          "name": "",
          "type": "uint256"
        }
      ],
      "stateMutability": "view",
      "type": "function"
    },
    {
      "inputs": [],
      "name": "SIGNUP_REWARDS",
      "outputs": [
        {
          "internalType": "uint256",
          "name": "",
          "type": "uint256"
        }
      ],
      "stateMutability": "view",
      "type": "function"
    },
    {
      "inputs": [
        {
          "internalType": "address",
          "name": "owner",
          "type": "address"
        },
        {
          "internalType": "address",
          "name": "spender",
          "type": "address"
        }
      ],
      "name": "allowance",
      "outputs": [
        {
          "internalType": "uint256",
          "name": "",
          "type": "uint256"
        }
      ],
      "stateMutability": "view",
      "type": "function"
    },
    {
      "inputs": [
        {
          "internalType": "address",
          "name": "spender",
          "type": "address"
        },
        {
          "internalType": "uint256",
          "name": "amount",
          "type": "uint256"
        }
      ],
      "name": "approve",
      "outputs": [
        {
          "internalType": "bool",
          "name": "",
          "type": "bool"
        }
      ],
      "stateMutability": "nonpayable",
      "type": "function"
    },
    {
      "inputs": [
        {
          "internalType": "address",
          "name": "account",
          "type": "address"
        }
      ],
      "name": "balanceOf",
      "outputs": [
        {
          "internalType": "uint256",
          "name": "",
          "type": "uint256"
        }
      ],
      "stateMutability": "view",
      "type": "function"
    },
    {
      "inputs": [
        {
          "internalType": "uint256",
          "name": "amount",
          "type": "uint256"
        }
      ],
      "name": "burn",
      "outputs": [],
      "stateMutability": "nonpayable",
      "type": "function"
    },
    {
      "inputs": [
        {
          "internalType": "address",
          "name": "account",
          "type": "address"
        },
        {
          "internalType": "uint256",
          "name": "amount",
          "type": "uint256"
        }
      ],
      "name": "burnFrom",
      "outputs": [],
      "stateMutability": "nonpayable",
      "type": "function"
    },
    {
      "inputs": [
        {
          "internalType": "address",
          "name": "_lubAuctionAddress",
          "type": "address"
        }
      ],
      "name": "changeLubAuctionAddress",
      "outputs": [],
      "stateMutability": "nonpayable",
      "type": "function"
    },
    {
      "inputs": [
        {
          "internalType": "address",
          "name": "account",
          "type": "address"
        }
      ],
      "name": "dailyBonus",
      "outputs": [],
      "stateMutability": "nonpayable",
      "type": "function"
    },
    {
      "inputs": [],
      "name": "decimals",
      "outputs": [
        {
          "internalType": "uint8",
          "name": "",
          "type": "uint8"
        }
      ],
      "stateMutability": "view",
      "type": "function"
    },
    {
      "inputs": [
        {
          "internalType": "address",
          "name": "spender",
          "type": "address"
        },
        {
          "internalType": "uint256",
          "name": "subtractedValue",
          "type": "uint256"
        }
      ],
      "name": "decreaseAllowance",
      "outputs": [
        {
          "internalType": "bool",
          "name": "",
          "type": "bool"
        }
      ],
      "stateMutability": "nonpayable",
      "type": "function"
    },
    {
      "inputs": [
        {
          "internalType": "address",
          "name": "token",
          "type": "address"
        },
        {
          "internalType": "uint256",
          "name": "amount",
          "type": "uint256"
        }
      ],
      "name": "flashFee",
      "outputs": [
        {
          "internalType": "uint256",
          "name": "",
          "type": "uint256"
        }
      ],
      "stateMutability": "view",
      "type": "function"
    },
    {
      "inputs": [
        {
          "internalType": "contract IERC3156FlashBorrower",
          "name": "receiver",
          "type": "address"
        },
        {
          "internalType": "address",
          "name": "token",
          "type": "address"
        },
        {
          "internalType": "uint256",
          "name": "amount",
          "type": "uint256"
        },
        {
          "internalType": "bytes",
          "name": "data",
          "type": "bytes"
        }
      ],
      "name": "flashLoan",
      "outputs": [
        {
          "internalType": "bool",
          "name": "",
          "type": "bool"
        }
      ],
      "stateMutability": "nonpayable",
      "type": "function"
    },
    {
      "inputs": [
        {
          "internalType": "bytes32",
          "name": "role",
          "type": "bytes32"
        }
      ],
      "name": "getRoleAdmin",
      "outputs": [
        {
          "internalType": "bytes32",
          "name": "",
          "type": "bytes32"
        }
      ],
      "stateMutability": "view",
      "type": "function"
    },
    {
      "inputs": [
        {
          "internalType": "bytes32",
          "name": "role",
          "type": "bytes32"
        },
        {
          "internalType": "address",
          "name": "account",
          "type": "address"
        }
      ],
      "name": "grantRole",
      "outputs": [],
      "stateMutability": "nonpayable",
      "type": "function"
    },
    {
      "inputs": [
        {
          "internalType": "bytes32",
          "name": "role",
          "type": "bytes32"
        },
        {
          "internalType": "address",
          "name": "account",
          "type": "address"
        }
      ],
      "name": "hasRole",
      "outputs": [
        {
          "internalType": "bool",
          "name": "",
          "type": "bool"
        }
      ],
      "stateMutability": "view",
      "type": "function"
    },
    {
      "inputs": [
        {
          "internalType": "address",
          "name": "spender",
          "type": "address"
        },
        {
          "internalType": "uint256",
          "name": "addedValue",
          "type": "uint256"
        }
      ],
      "name": "increaseAllowance",
      "outputs": [
        {
          "internalType": "bool",
          "name": "",
          "type": "bool"
        }
      ],
      "stateMutability": "nonpayable",
      "type": "function"
    },
    {
      "inputs": [
        {
          "internalType": "address",
          "name": "",
          "type": "address"
        }
      ],
      "name": "lastClaimedTime",
      "outputs": [
        {
          "internalType": "uint256",
          "name": "",
          "type": "uint256"
        }
      ],
      "stateMutability": "view",
      "type": "function"
    },
    {
      "inputs": [
        {
          "internalType": "address",
          "name": "",
          "type": "address"
        }
      ],
      "name": "lockedVotingTokens",
      "outputs": [
        {
          "internalType": "uint256",
          "name": "",
          "type": "uint256"
        }
      ],
      "stateMutability": "view",
      "type": "function"
    },
    {
      "inputs": [],
      "name": "lubAuctionAddress",
      "outputs": [
        {
          "internalType": "address",
          "name": "",
          "type": "address"
        }
      ],
      "stateMutability": "view",
      "type": "function"
    },
    {
      "inputs": [
        {
          "internalType": "address",
          "name": "token",
          "type": "address"
        }
      ],
      "name": "maxFlashLoan",
      "outputs": [
        {
          "internalType": "uint256",
          "name": "",
          "type": "uint256"
        }
      ],
      "stateMutability": "view",
      "type": "function"
    },
    {
      "inputs": [
        {
          "internalType": "address",
          "name": "account",
          "type": "address"
        },
        {
          "internalType": "uint256",
          "name": "amount",
          "type": "uint256"
        }
      ],
      "name": "mintLocked",
      "outputs": [],
      "stateMutability": "nonpayable",
      "type": "function"
    },
    {
      "inputs": [
        {
          "internalType": "address",
          "name": "account",
          "type": "address"
        },
        {
          "internalType": "uint256",
          "name": "amount",
          "type": "uint256"
        }
      ],
      "name": "mintUnlocked",
      "outputs": [],
      "stateMutability": "nonpayable",
      "type": "function"
    },
    {
      "inputs": [],
      "name": "name",
      "outputs": [
        {
          "internalType": "string",
          "name": "",
          "type": "string"
        }
      ],
      "stateMutability": "view",
      "type": "function"
    },
    {
      "inputs": [
        {
          "internalType": "bytes32",
          "name": "role",
          "type": "bytes32"
        },
        {
          "internalType": "address",
          "name": "account",
          "type": "address"
        }
      ],
      "name": "renounceRole",
      "outputs": [],
      "stateMutability": "nonpayable",
      "type": "function"
    },
    {
      "inputs": [
        {
          "internalType": "bytes32",
          "name": "role",
          "type": "bytes32"
        },
        {
          "internalType": "address",
          "name": "account",
          "type": "address"
        }
      ],
      "name": "revokeRole",
      "outputs": [],
      "stateMutability": "nonpayable",
      "type": "function"
    },
    {
      "inputs": [
        {
          "internalType": "address",
          "name": "account",
          "type": "address"
        }
      ],
      "name": "signupBonus",
      "outputs": [],
      "stateMutability": "nonpayable",
      "type": "function"
    },
    {
      "inputs": [
        {
          "internalType": "address",
          "name": "",
          "type": "address"
        }
      ],
      "name": "signupBonusClaimed",
      "outputs": [
        {
          "internalType": "bool",
          "name": "",
          "type": "bool"
        }
      ],
      "stateMutability": "view",
      "type": "function"
    },
    {
      "inputs": [
        {
          "internalType": "bytes4",
          "name": "interfaceId",
          "type": "bytes4"
        }
      ],
      "name": "supportsInterface",
      "outputs": [
        {
          "internalType": "bool",
          "name": "",
          "type": "bool"
        }
      ],
      "stateMutability": "view",
      "type": "function"
    },
    {
      "inputs": [],
      "name": "symbol",
      "outputs": [
        {
          "internalType": "string",
          "name": "",
          "type": "string"
        }
      ],
      "stateMutability": "view",
      "type": "function"
    },
    {
      "inputs": [],
      "name": "totalSupply",
      "outputs": [
        {
          "internalType": "uint256",
          "name": "",
          "type": "uint256"
        }
      ],
      "stateMutability": "view",
      "type": "function"
    },
    {
      "inputs": [
        {
          "internalType": "address",
          "name": "to",
          "type": "address"
        },
        {
          "internalType": "uint256",
          "name": "amount",
          "type": "uint256"
        }
      ],
      "name": "transfer",
      "outputs": [
        {
          "internalType": "bool",
          "name": "",
          "type": "bool"
        }
      ],
      "stateMutability": "nonpayable",
      "type": "function"
    },
    {
      "inputs": [
        {
          "internalType": "address",
          "name": "from",
          "type": "address"
        },
        {
          "internalType": "address",
          "name": "to",
          "type": "address"
        },
        {
          "internalType": "uint256",
          "name": "amount",
          "type": "uint256"
        }
      ],
      "name": "transferFrom",
      "outputs": [
        {
          "internalType": "bool",
          "name": "",
          "type": "bool"
        }
      ],
      "stateMutability": "nonpayable",
      "type": "function"
    },
    {
      "inputs": [
        {
          "internalType": "address",
          "name": "",
          "type": "address"
        }
      ],
      "name": "unlockedBalanceOf",
      "outputs": [
        {
          "internalType": "uint256",
          "name": "",
          "type": "uint256"
        }
      ],
      "stateMutability": "view",
      "type": "function"
    }
  ],
  "bytecode": "0x60806040523480156200001157600080fd5b506040516200270238038062002702833981016040819052620000349162000215565b818160036200004483826200030e565b5060046200005382826200030e565b5050600160065550620000686000336200009c565b620000947f9f2df0fed2c77648de5860a4cc508cd0818c85b8b8a1ab4ceeef8d981c8956a6336200009c565b5050620003da565b620000a88282620000ac565b5050565b60008281526005602090815260408083206001600160a01b038516845290915290205460ff16620000a85760008281526005602090815260408083206001600160a01b03851684529091529020805460ff191660011790556200010c3390565b6001600160a01b0316816001600160a01b0316837f2f8788117e7eff1d82e926ec794901d17c78024a50270940304540a733656f0d60405160405180910390a45050565b634e487b7160e01b600052604160045260246000fd5b600082601f8301126200017857600080fd5b81516001600160401b038082111562000195576200019562000150565b604051601f8301601f19908116603f01168101908282118183101715620001c057620001c062000150565b81604052838152602092508683858801011115620001dd57600080fd5b600091505b83821015620002015785820183015181830184015290820190620001e2565b600093810190920192909252949350505050565b600080604083850312156200022957600080fd5b82516001600160401b03808211156200024157600080fd5b6200024f8683870162000166565b935060208501519150808211156200026657600080fd5b50620002758582860162000166565b9150509250929050565b600181811c908216806200029457607f821691505b602082108103620002b557634e487b7160e01b600052602260045260246000fd5b50919050565b601f8211156200030957600081815260208120601f850160051c81016020861015620002e45750805b601f850160051c820191505b818110156200030557828155600101620002f0565b5050505b505050565b81516001600160401b038111156200032a576200032a62000150565b62000342816200033b84546200027f565b84620002bb565b602080601f8311600181146200037a5760008415620003615750858301515b600019600386901b1c1916600185901b17855562000305565b600085815260208120601f198616915b82811015620003ab578886015182559484019460019091019084016200038a565b5085821015620003ca5787850151600019600388901b60f8161c191681555b5050505050600190811b01905550565b61231880620003ea6000396000f3fe608060405234801561001057600080fd5b50600436106102265760003560e01c80636b5b0cc111610130578063a457c2d7116100b8578063d9d98ce41161007c578063d9d98ce4146104f8578063dd62ed3e1461050b578063de47a2cc1461051e578063f3f91fa01461052f578063f457239a1461054f57600080fd5b8063a457c2d714610474578063a9059cbb14610487578063b0a06bc21461049a578063b95d47d6146104c5578063d547741f146104e557600080fd5b806383ec4700116100ff57806383ec47001461040e57806384955c881461043157806391d148541461045157806395d89b4114610464578063a217fddf1461046c57600080fd5b80636b5b0cc1146103ac57806370a08231146103bf5780637477f36a146103e857806379cc6790146103fb57600080fd5b806336568abe116101b35780634975448e116101825780634975448e146103555780634b9afa80146103645780635143e246146103735780635cffe9de14610386578063613255ab1461039957600080fd5b806336568abe146102fa578063395093511461030d57806342966c6814610320578063485d38341461033357600080fd5b806318160ddd116101fa57806318160ddd1461029057806323b872dd146102a2578063248a9ca3146102b55780632f2ff15d146102d8578063313ce567146102eb57600080fd5b8062168ce71461022b57806301ffc9a71461024057806306fdde0314610268578063095ea7b31461027d575b600080fd5b61023e610239366004611eca565b610562565b005b61025361024e366004611ee7565b610694565b60405190151581526020015b60405180910390f35b6102706106cb565b60405161025f9190611f35565b61025361028b366004611f68565b61075d565b6002545b60405190815260200161025f565b6102536102b0366004611f94565b610775565b6102946102c3366004611fd5565b60009081526005602052604090206001015490565b61023e6102e6366004611fee565b610799565b6040516012815260200161025f565b61023e610308366004611fee565b6107c3565b61025361031b366004611f68565b61083d565b61023e61032e366004611fd5565b61085f565b61033c610e1081565b60405167ffffffffffffffff909116815260200161025f565b6102946729a2241af62c000081565b610294670de0b6b3a764000081565b61023e610381366004611f68565b61086c565b61025361039436600461201e565b6108aa565b6102946103a7366004611eca565b61093b565b61023e6103ba366004611eca565b610963565b6102946103cd366004611eca565b6001600160a01b031660009081526020819052604090205490565b61023e6103f6366004611f68565b610af5565b61023e610409366004611f68565b610b5b565b61025361041c366004611eca565b600a6020526000908152604090205460ff1681565b61029461043f366004611eca565b60096020526000908152604090205481565b61025361045f366004611fee565b610b70565b610270610b9b565b610294600081565b610253610482366004611f68565b610baa565b610253610495366004611f68565b610c25565b600c546104ad906001600160a01b031681565b6040516001600160a01b03909116815260200161025f565b6102946104d3366004611eca565b60086020526000908152604090205481565b61023e6104f3366004611fee565b610c33565b610294610506366004611f68565b610c58565b6102946105193660046120bd565b610cbc565b61029469d3c21bcecceda100000081565b61029461053d366004611eca565b600b6020526000908152604090205481565b61023e61055d366004611eca565b610ce7565b7f51785d261c3b3e8c2cfe2d0e108b9ab2b1fb703ff9e9e49aba4ebdc85c36152b61058c81610dc1565b610594610dcb565b6001600160a01b0382166000908152600a602052604090205460ff16156106025760405162461bcd60e51b815260206004820152601c60248201527f5369676e757020626f6e757320616c726561647920636c61696d65640000000060448201526064015b60405180910390fd5b610614826729a2241af62c0000610e24565b610626826729a2241af62c0000610ef7565b6001600160a01b0382166000818152600a60209081526040808320805460ff19166001179055600b909152808220429055516729a2241af62c000092917fade39d03f7e1567481089a1f27266f44ec23a12393c518cef2f85e2cc2ec173f91a36106906001600655565b5050565b60006001600160e01b03198216637965db0b60e01b14806106c557506301ffc9a760e01b6001600160e01b03198316145b92915050565b6060600380546106da906120eb565b80601f0160208091040260200160405190810160405280929190818152602001828054610706906120eb565b80156107535780601f1061072857610100808354040283529160200191610753565b820191906000526020600020905b81548152906001019060200180831161073657829003601f168201915b5050505050905090565b60003361076b81858561101a565b5060019392505050565b60003361078385828561113e565b61078e8585856111b8565b506001949350505050565b6000828152600560205260409020600101546107b481610dc1565b6107be838361136d565b505050565b6001600160a01b03811633146108335760405162461bcd60e51b815260206004820152602f60248201527f416363657373436f6e74726f6c3a2063616e206f6e6c792072656e6f756e636560448201526e103937b632b9903337b91039b2b63360891b60648201526084016105f9565b61069082826113f3565b60003361076b8185856108508383610cbc565b61085a919061213b565b61101a565b610869338261145a565b50565b7f9f2df0fed2c77648de5860a4cc508cd0818c85b8b8a1ab4ceeef8d981c8956a661089681610dc1565b6108a08383610e24565b6107be8383610ef7565b6001600160a01b0385166000908152600860205260408120805485919083906108d490849061213b565b909155505033600090815260086020526040812080548692906108f890849061213b565b909155506000905061090d878787878761159f565b6001600160a01b03881660009081526008602052604080822082905533825281205591505095945050505050565b60006001600160a01b03821630146109545760006106c5565b6002546106c59060001961214e565b7f51785d261c3b3e8c2cfe2d0e108b9ab2b1fb703ff9e9e49aba4ebdc85c36152b61098d81610dc1565b610995610dcb565b6001600160a01b0382166000908152600a602052604090205460ff166109fd5760405162461bcd60e51b815260206004820152601c60248201527f5369676e757020626f6e7573206e6f7420636c61696d6564207965740000000060448201526064016105f9565b6001600160a01b0382166000908152600b602052604090205461025890610a24904261214e565b1015610a7c5760405162461bcd60e51b815260206004820152602160248201527f4461696c7920626f6e757320616c726561647920636c61696d656420746f64616044820152607960f81b60648201526084016105f9565b610a8e82670de0b6b3a7640000610e24565b610aa082670de0b6b3a7640000610ef7565b6001600160a01b0382166000818152600b602052604080822042905551670de0b6b3a764000092917fd45e91d4afc2d881a07573dec52ea6c5d8aa811076201c1281a280878d26a1de91a36106906001600655565b7f9f2df0fed2c77648de5860a4cc508cd0818c85b8b8a1ab4ceeef8d981c8956a6610b1f81610dc1565b610b298383610e24565b6001600160a01b03831660009081526009602052604081208054849290610b5190849061213b565b9091555050505050565b610b6682338361113e565b610690828261145a565b60009182526005602090815260408084206001600160a01b0393909316845291905290205460ff1690565b6060600480546106da906120eb565b60003381610bb88286610cbc565b905083811015610c185760405162461bcd60e51b815260206004820152602560248201527f45524332303a2064656372656173656420616c6c6f77616e63652062656c6f77604482015264207a65726f60d81b60648201526084016105f9565b61078e828686840361101a565b60003361076b8185856111b8565b600082815260056020526040902060010154610c4e81610dc1565b6107be83836113f3565b60006001600160a01b0383163014610cb25760405162461bcd60e51b815260206004820152601b60248201527f4552433230466c6173684d696e743a2077726f6e6720746f6b656e000000000060448201526064016105f9565b60005b9392505050565b6001600160a01b03918216600090815260016020908152604080832093909416825291909152205490565b6000610cf281610dc1565b6001600160a01b038216610d595760405162461bcd60e51b815260206004820152602860248201527f5a65726f2061646472657373206e6f7420616c6c6f77656420666f72204c55426044820152671030bab1ba34b7b760c11b60648201526084016105f9565b600c546001600160a01b0383811691161461069057600c80546001600160a01b038481166001600160a01b0319831681179093556040519116919082907f9e65d461655023e5ee934a1969793e5df8a302f08a5e849ede5562fd3e80e93e90600090a3505050565b6108698133611783565b600260065403610e1d5760405162461bcd60e51b815260206004820152601f60248201527f5265656e7472616e637947756172643a207265656e7472616e742063616c6c0060448201526064016105f9565b6002600655565b6001600160a01b038216610e7a5760405162461bcd60e51b815260206004820152601f60248201527f45524332303a206d696e7420746f20746865207a65726f20616464726573730060448201526064016105f9565b610e86600083836117dc565b8060026000828254610e98919061213b565b90915550506001600160a01b038216600081815260208181526040808320805486019055518481527fddf252ad1be2c89b69c2b068fc378daa952ba7f163c4a11628f55a4df523b3ef910160405180910390a361069060008383611893565b6000610f05610e104261213b565b6001600160a01b0384166000908152600960209081526040808320549183905290912054919250610f359161214e565b821115610f845760405162461bcd60e51b815260206004820152601a60248201527f467265652062616c616e6365206c6f636b20657863656564656400000000000060448201526064016105f9565b6001600160a01b0383166000818152600760209081526040808320815180830183526001600160c01b03808916825267ffffffffffffffff80891683870190815284546001810186559488529587209251955116600160c01b02941693909317920191909155518392859290917fd741e738a23fd18a03a26522320d9fc6cac1fed483e215ea9150fbc2fc43385d9190a4505050565b6001600160a01b03831661107c5760405162461bcd60e51b8152602060048201526024808201527f45524332303a20617070726f76652066726f6d20746865207a65726f206164646044820152637265737360e01b60648201526084016105f9565b6001600160a01b0382166110dd5760405162461bcd60e51b815260206004820152602260248201527f45524332303a20617070726f766520746f20746865207a65726f206164647265604482015261737360f01b60648201526084016105f9565b6001600160a01b0383811660008181526001602090815260408083209487168084529482529182902085905590518481527f8c5be1e5ebec7d5bd14f71427d1e84f3dd0314c0f7b2291e5b200ac8c7c3b925910160405180910390a3505050565b600061114a8484610cbc565b905060001981146111b257818110156111a55760405162461bcd60e51b815260206004820152601d60248201527f45524332303a20696e73756666696369656e7420616c6c6f77616e636500000060448201526064016105f9565b6111b2848484840361101a565b50505050565b6001600160a01b03831661121c5760405162461bcd60e51b815260206004820152602560248201527f45524332303a207472616e736665722066726f6d20746865207a65726f206164604482015264647265737360d81b60648201526084016105f9565b6001600160a01b03821661127e5760405162461bcd60e51b815260206004820152602360248201527f45524332303a207472616e7366657220746f20746865207a65726f206164647260448201526265737360e81b60648201526084016105f9565b6112898383836117dc565b6001600160a01b038316600090815260208190526040902054818110156113015760405162461bcd60e51b815260206004820152602660248201527f45524332303a207472616e7366657220616d6f756e7420657863656564732062604482015265616c616e636560d01b60648201526084016105f9565b6001600160a01b03848116600081815260208181526040808320878703905593871680835291849020805487019055925185815290927fddf252ad1be2c89b69c2b068fc378daa952ba7f163c4a11628f55a4df523b3ef910160405180910390a36111b2848484611893565b6113778282610b70565b6106905760008281526005602090815260408083206001600160a01b03851684529091529020805460ff191660011790556113af3390565b6001600160a01b0316816001600160a01b0316837f2f8788117e7eff1d82e926ec794901d17c78024a50270940304540a733656f0d60405160405180910390a45050565b6113fd8282610b70565b156106905760008281526005602090815260408083206001600160a01b0385168085529252808320805460ff1916905551339285917ff6391f5c32d9c69d2a47ea670b442974b53935d1edc7fd64eb21e047a839171b9190a45050565b6001600160a01b0382166114ba5760405162461bcd60e51b815260206004820152602160248201527f45524332303a206275726e2066726f6d20746865207a65726f206164647265736044820152607360f81b60648201526084016105f9565b6114c6826000836117dc565b6001600160a01b0382166000908152602081905260409020548181101561153a5760405162461bcd60e51b815260206004820152602260248201527f45524332303a206275726e20616d6f756e7420657863656564732062616c616e604482015261636560f01b60648201526084016105f9565b6001600160a01b0383166000818152602081815260408083208686039055600280548790039055518581529192917fddf252ad1be2c89b69c2b068fc378daa952ba7f163c4a11628f55a4df523b3ef910160405180910390a36107be83600084611893565b60006115aa8561093b565b84111561160d5760405162461bcd60e51b815260206004820152602b60248201527f4552433230466c6173684d696e743a20616d6f756e742065786365656473206d60448201526a30bc233630b9b42637b0b760a91b60648201526084016105f9565b60006116198686610c58565b90506116258786610e24565b6040516323e30c8b60e01b81527f439148f0bbc682ca079e46d6e2c2f0c1e3b820f1a291b069d8882abf8cf18dd9906001600160a01b038916906323e30c8b9061167d9033908b908b9088908c908c90600401612161565b6020604051808303816000875af115801561169c573d6000803e3d6000fd5b505050506040513d601f19601f820116820180604052508101906116c091906121bd565b146117195760405162461bcd60e51b8152602060048201526024808201527f4552433230466c6173684d696e743a20696e76616c69642072657475726e2076604482015263616c756560e01b60648201526084016105f9565b600061172f883061172a858a61213b565b61113e565b81158061174357506001600160a01b038116155b156117605761175b88611756848961213b565b61145a565b611775565b61176a888761145a565b6117758882846111b8565b506001979650505050505050565b61178d8282610b70565b6106905761179a8161190a565b6117a583602061191c565b6040516020016117b69291906121d6565b60408051601f198184030181529082905262461bcd60e51b82526105f991600401611f35565b6001600160a01b0383166117ef57505050565b69d3c21bcecceda10000008111156118495760405162461bcd60e51b815260206004820152601c60248201527f4d41585f5452414e534645525f5045525f5452414e53414354494f4e0000000060448201526064016105f9565b6001600160a01b0383166000908152600960205260409020548111156107be57600c546001600160a01b0390811690831603611889576107be8382611ab8565b6107be8382611d15565b6001600160a01b0383166118a657505050565b6001600160a01b038316600090815260096020526040812080548392906118ce90849061214e565b90915550506001600160a01b038216600090815260096020526040812080548392906118fb90849061213b565b909155506107be905083838383565b60606106c56001600160a01b03831660145b6060600061192b83600261224b565b61193690600261213b565b67ffffffffffffffff81111561194e5761194e612262565b6040519080825280601f01601f191660200182016040528015611978576020820181803683370190505b509050600360fc1b8160008151811061199357611993612278565b60200101906001600160f81b031916908160001a905350600f60fb1b816001815181106119c2576119c2612278565b60200101906001600160f81b031916908160001a90535060006119e684600261224b565b6119f190600161213b565b90505b6001811115611a69576f181899199a1a9b1b9c1cb0b131b232b360811b85600f1660108110611a2557611a25612278565b1a60f81b828281518110611a3b57611a3b612278565b60200101906001600160f81b031916908160001a90535060049490941c93611a628161228e565b90506119f4565b508315610cb55760405162461bcd60e51b815260206004820181905260248201527f537472696e67733a20686578206c656e67746820696e73756666696369656e7460448201526064016105f9565b611ac28282611e4f565b6001600160a01b0382166000908152600960209081526040808320549183905290912054611af0919061214e565b811115611b3f5760405162461bcd60e51b815260206004820152601860248201527f4e6f7420656e6f756768206c6f636b656420746f6b656e73000000000000000060448201526064016105f9565b6001600160a01b038216600090815260076020526040812080545b8015611cc5578382611b6d60018461214e565b81548110611b7d57611b7d612278565b6000918252602090912001546001600160c01b031611611c3e5781611ba360018361214e565b81548110611bb357611bb3612278565b600091825260209091200154611bd2906001600160c01b03168461213b565b925081611be060018361214e565b81548110611bf057611bf0612278565b600091825260209091200154611c0f906001600160c01b03168561214e565b935081805480611c2157611c216122a5565b600082815260208120820160001990810191909155019055611cb3565b611c48848461213b565b92508382611c5760018461214e565b81548110611c6757611c67612278565b600091825260208220018054909190611c8a9084906001600160c01b03166122bb565b92506101000a8154816001600160c01b0302191690836001600160c01b03160217905550611cc5565b80611cbd8161228e565b915050611b5a565b508282146111b25760405162461bcd60e51b815260206004820152601860248201527f556e6c6f636b656420616d6f756e74206d69736d61746368000000000000000060448201526064016105f9565b611d1f8282611e4f565b6001600160a01b038216600090815260096020908152604080832054600790925290912080545b8015611e0c574282611d5960018461214e565b81548110611d6957611d69612278565b600091825260209091200154600160c01b900467ffffffffffffffff1611611df55781611d9760018361214e565b81548110611da757611da7612278565b600091825260209091200154611dc6906001600160c01b03168461213b565b925081805480611dd857611dd86122a5565b600082815260208120820160001990810191909155019055611dfa565b611e0c565b80611e048161228e565b915050611d46565b5081831115611e2e576040516313424e8d60e31b815260040160405180910390fd5b506001600160a01b0390921660009081526009602052604090209190915550565b611e5881611e94565b6001600160a01b03821660009081526020819052604090205481111561069057604051639266535160e01b8152600481018290526024016105f9565b806000036108695760405163273e150360e21b815260040160405180910390fd5b6001600160a01b038116811461086957600080fd5b600060208284031215611edc57600080fd5b8135610cb581611eb5565b600060208284031215611ef957600080fd5b81356001600160e01b031981168114610cb557600080fd5b60005b83811015611f2c578181015183820152602001611f14565b50506000910152565b6020815260008251806020840152611f54816040850160208701611f11565b601f01601f19169190910160400192915050565b60008060408385031215611f7b57600080fd5b8235611f8681611eb5565b946020939093013593505050565b600080600060608486031215611fa957600080fd5b8335611fb481611eb5565b92506020840135611fc481611eb5565b929592945050506040919091013590565b600060208284031215611fe757600080fd5b5035919050565b6000806040838503121561200157600080fd5b82359150602083013561201381611eb5565b809150509250929050565b60008060008060006080868803121561203657600080fd5b853561204181611eb5565b9450602086013561205181611eb5565b935060408601359250606086013567ffffffffffffffff8082111561207557600080fd5b818801915088601f83011261208957600080fd5b81358181111561209857600080fd5b8960208285010111156120aa57600080fd5b9699959850939650602001949392505050565b600080604083850312156120d057600080fd5b82356120db81611eb5565b9150602083013561201381611eb5565b600181811c908216806120ff57607f821691505b60208210810361211f57634e487b7160e01b600052602260045260246000fd5b50919050565b634e487b7160e01b600052601160045260246000fd5b808201808211156106c5576106c5612125565b818103818111156106c5576106c5612125565b6001600160a01b03878116825286166020820152604081018590526060810184905260a06080820181905281018290526000828460c0840137600060c0848401015260c0601f19601f8501168301019050979650505050505050565b6000602082840312156121cf57600080fd5b5051919050565b7f416363657373436f6e74726f6c3a206163636f756e742000000000000000000081526000835161220e816017850160208801611f11565b7001034b99036b4b9b9b4b733903937b6329607d1b601791840191820152835161223f816028840160208801611f11565b01602801949350505050565b80820281158282048414176106c5576106c5612125565b634e487b7160e01b600052604160045260246000fd5b634e487b7160e01b600052603260045260246000fd5b60008161229d5761229d612125565b506000190190565b634e487b7160e01b600052603160045260246000fd5b6001600160c01b038281168282160390808211156122db576122db612125565b509291505056fea264697066735822122073889b10bf682162d1a1bb3b57ea0bafbddba8219a6b7345966a011ea56cb51964736f6c63430008120033",
  "linkReferences": {},
  "deployedLinkReferences": {}
}